{
  "contractName": "LendingPlatform",
  "abi": [
    {
      "inputs": [
        {
          "internalType": "address",
          "name": "",
          "type": "address"
        }
      ],
      "name": "balances",
      "outputs": [
        {
          "internalType": "uint256",
          "name": "",
          "type": "uint256"
        }
      ],
      "stateMutability": "view",
      "type": "function",
      "constant": true
    },
    {
      "inputs": [
        {
          "internalType": "address",
          "name": "",
          "type": "address"
        }
      ],
      "name": "depositTimestamps",
      "outputs": [
        {
          "internalType": "uint256",
          "name": "",
          "type": "uint256"
        }
      ],
      "stateMutability": "view",
      "type": "function",
      "constant": true
    },
    {
      "inputs": [],
      "name": "interestRate",
      "outputs": [
        {
          "internalType": "uint256",
          "name": "",
          "type": "uint256"
        }
      ],
      "stateMutability": "view",
      "type": "function",
      "constant": true
    },
    {
      "inputs": [],
      "name": "deposit",
      "outputs": [],
      "stateMutability": "payable",
      "type": "function",
      "payable": true
    },
    {
      "inputs": [],
      "name": "withdraw",
      "outputs": [],
      "stateMutability": "nonpayable",
      "type": "function"
    }
  ],
  "bytecode": "0x6080604052600160025534801561001557600080fd5b506106ad806100256000396000f3fe60806040526004361061004a5760003560e01c8063240be9441461004f57806327e235e31461008c5780633ccfd60b146100c95780637c3a00fd146100e0578063d0e30db01461010b575b600080fd5b34801561005b57600080fd5b50610076600480360381019061007191906103ed565b610115565b6040516100839190610485565b60405180910390f35b34801561009857600080fd5b506100b360048036038101906100ae91906103ed565b61012d565b6040516100c09190610485565b60405180910390f35b3480156100d557600080fd5b506100de610145565b005b3480156100ec57600080fd5b506100f5610337565b6040516101029190610485565b60405180910390f35b61011361033d565b005b60016020528060005260406000206000915090505481565b60006020528060005260406000206000915090505481565b6000600160003373ffffffffffffffffffffffffffffffffffffffff1673ffffffffffffffffffffffffffffffffffffffff16815260200190815260200160002054905060008060003373ffffffffffffffffffffffffffffffffffffffff1673ffffffffffffffffffffffffffffffffffffffff1681526020019081526020016000205490506000811161020f576040517f08c379a000000000000000000000000000000000000000000000000000000000815260040161020690610465565b60405180910390fd5b60006201518083426102219190610592565b61022b9190610507565b90506000606482600254856102409190610538565b61024a9190610538565b6102549190610507565b905060008060003373ffffffffffffffffffffffffffffffffffffffff1673ffffffffffffffffffffffffffffffffffffffff168152602001908152602001600020819055506000600160003373ffffffffffffffffffffffffffffffffffffffff1673ffffffffffffffffffffffffffffffffffffffff168152602001908152602001600020819055503373ffffffffffffffffffffffffffffffffffffffff166108fc828561030591906104b1565b9081150290604051600060405180830381858888f19350505050158015610330573d6000803e3d6000fd5b5050505050565b60025481565b346000803373ffffffffffffffffffffffffffffffffffffffff1673ffffffffffffffffffffffffffffffffffffffff168152602001908152602001600020600082825461038b91906104b1565b9250508190555042600160003373ffffffffffffffffffffffffffffffffffffffff1673ffffffffffffffffffffffffffffffffffffffff16815260200190815260200160002081905550565b6000813590506103e781610660565b92915050565b6000602082840312156103ff57600080fd5b600061040d848285016103d8565b91505092915050565b60006104236016836104a0565b91507f4e6f206465706f73697420746f207769746864726177000000000000000000006000830152602082019050919050565b61045f816105f8565b82525050565b6000602082019050818103600083015261047e81610416565b9050919050565b600060208201905061049a6000830184610456565b92915050565b600082825260208201905092915050565b60006104bc826105f8565b91506104c7836105f8565b9250827fffffffffffffffffffffffffffffffffffffffffffffffffffffffffffffffff038211156104fc576104fb610602565b5b828201905092915050565b6000610512826105f8565b915061051d836105f8565b92508261052d5761052c610631565b5b828204905092915050565b6000610543826105f8565b915061054e836105f8565b9250817fffffffffffffffffffffffffffffffffffffffffffffffffffffffffffffffff048311821515161561058757610586610602565b5b828202905092915050565b600061059d826105f8565b91506105a8836105f8565b9250828210156105bb576105ba610602565b5b828203905092915050565b60006105d1826105d8565b9050919050565b600073ffffffffffffffffffffffffffffffffffffffff82169050919050565b6000819050919050565b7f4e487b7100000000000000000000000000000000000000000000000000000000600052601160045260246000fd5b7f4e487b7100000000000000000000000000000000000000000000000000000000600052601260045260246000fd5b610669816105c6565b811461067457600080fd5b5056fea2646970667358221220b4a2e6a6bbe2c6a0b5e32a7c3c01aca4179c6ed6dc862b13dfa779bdfd335ef764736f6c63430008000033",
  "immutableReferences": {},
  "source": "// SPDX-License-Identifier: MIT\r\npragma solidity ^0.8.0;\r\n\r\ncontract LendingPlatform {\r\n    mapping(address => uint) public balances;\r\n    mapping(address => uint) public depositTimestamps;\r\n    uint public interestRate = 1; // 1% interest rate per day\r\n\r\n    function deposit() public payable {\r\n        balances[msg.sender] += msg.value;\r\n        depositTimestamps[msg.sender] = block.timestamp;\r\n    }\r\n\r\n    function withdraw() public {\r\n        uint depositTimestamp = depositTimestamps[msg.sender];\r\n        uint depositAmount = balances[msg.sender];\r\n        require(depositAmount > 0, \"No deposit to withdraw\");\r\n\r\n        uint elapsedTime = (block.timestamp - depositTimestamp) / 1 days;\r\n        uint interest = (depositAmount * interestRate * elapsedTime) / 100;\r\n\r\n        balances[msg.sender] = 0;\r\n        depositTimestamps[msg.sender] = 0;\r\n        payable(msg.sender).transfer(depositAmount + interest);\r\n    }\r\n}",
  "sourcePath": "C:\\Users\\HP\\Desktop\\test-app\\contracts\\LendingPlatform.sol",
  "compiler": {
    "name": "solc",
    "version": "0.8.0+commit.c7dfd78e.Emscripten.clang"
  },
  "schemaVersion": "3.4.16",
  "updatedAt": "2024-12-21T14:17:38.116Z",
  "networkType": "ethereum",
  "devdoc": {
    "kind": "dev",
    "methods": {},
    "version": 1
  },
  "userdoc": {
    "kind": "user",
    "methods": {},
    "version": 1
  }
}