{
  "contractName": "LendingPlatform",
  "abi": [
    {
      "inputs": [],
      "stateMutability": "nonpayable",
      "type": "constructor"
    },
    {
      "anonymous": false,
      "inputs": [
        {
          "indexed": true,
          "internalType": "address",
          "name": "user",
          "type": "address"
        },
        {
          "indexed": false,
          "internalType": "uint256",
          "name": "amount",
          "type": "uint256"
        }
      ],
      "name": "Borrow",
      "type": "event"
    },
    {
      "anonymous": false,
      "inputs": [
        {
          "indexed": true,
          "internalType": "address",
          "name": "user",
          "type": "address"
        },
        {
          "indexed": false,
          "internalType": "uint256",
          "name": "amount",
          "type": "uint256"
        }
      ],
      "name": "Deposit",
      "type": "event"
    },
    {
      "anonymous": false,
      "inputs": [
        {
          "indexed": true,
          "internalType": "address",
          "name": "user",
          "type": "address"
        },
        {
          "indexed": false,
          "internalType": "uint256",
          "name": "amount",
          "type": "uint256"
        }
      ],
      "name": "Repay",
      "type": "event"
    },
    {
      "anonymous": false,
      "inputs": [
        {
          "indexed": true,
          "internalType": "address",
          "name": "user",
          "type": "address"
        },
        {
          "indexed": false,
          "internalType": "string",
          "name": "transactionType",
          "type": "string"
        },
        {
          "indexed": false,
          "internalType": "uint256",
          "name": "amount",
          "type": "uint256"
        },
        {
          "indexed": false,
          "internalType": "uint256",
          "name": "timestamp",
          "type": "uint256"
        }
      ],
      "name": "TransactionRecorded",
      "type": "event"
    },
    {
      "anonymous": false,
      "inputs": [
        {
          "indexed": true,
          "internalType": "address",
          "name": "user",
          "type": "address"
        },
        {
          "indexed": false,
          "internalType": "uint256",
          "name": "amount",
          "type": "uint256"
        }
      ],
      "name": "Withdraw",
      "type": "event"
    },
    {
      "inputs": [],
      "name": "LTV",
      "outputs": [
        {
          "internalType": "uint256",
          "name": "",
          "type": "uint256"
        }
      ],
      "stateMutability": "view",
      "type": "function",
      "constant": true
    },
    {
      "inputs": [],
      "name": "annualInterestRate",
      "outputs": [
        {
          "internalType": "uint256",
          "name": "",
          "type": "uint256"
        }
      ],
      "stateMutability": "view",
      "type": "function",
      "constant": true
    },
    {
      "inputs": [
        {
          "internalType": "address",
          "name": "",
          "type": "address"
        }
      ],
      "name": "balances",
      "outputs": [
        {
          "internalType": "uint256",
          "name": "",
          "type": "uint256"
        }
      ],
      "stateMutability": "view",
      "type": "function",
      "constant": true
    },
    {
      "inputs": [
        {
          "internalType": "address",
          "name": "",
          "type": "address"
        }
      ],
      "name": "borrowedAmounts",
      "outputs": [
        {
          "internalType": "uint256",
          "name": "",
          "type": "uint256"
        }
      ],
      "stateMutability": "view",
      "type": "function",
      "constant": true
    },
    {
      "inputs": [],
      "name": "insuranceFund",
      "outputs": [
        {
          "internalType": "uint256",
          "name": "",
          "type": "uint256"
        }
      ],
      "stateMutability": "view",
      "type": "function",
      "constant": true
    },
    {
      "inputs": [],
      "name": "latePenaltyRate",
      "outputs": [
        {
          "internalType": "uint256",
          "name": "",
          "type": "uint256"
        }
      ],
      "stateMutability": "view",
      "type": "function",
      "constant": true
    },
    {
      "inputs": [
        {
          "internalType": "address",
          "name": "",
          "type": "address"
        }
      ],
      "name": "loanDueDates",
      "outputs": [
        {
          "internalType": "uint256",
          "name": "",
          "type": "uint256"
        }
      ],
      "stateMutability": "view",
      "type": "function",
      "constant": true
    },
    {
      "inputs": [
        {
          "internalType": "address",
          "name": "",
          "type": "address"
        }
      ],
      "name": "loanStartTimes",
      "outputs": [
        {
          "internalType": "uint256",
          "name": "",
          "type": "uint256"
        }
      ],
      "stateMutability": "view",
      "type": "function",
      "constant": true
    },
    {
      "inputs": [],
      "name": "owner",
      "outputs": [
        {
          "internalType": "address",
          "name": "",
          "type": "address"
        }
      ],
      "stateMutability": "view",
      "type": "function",
      "constant": true
    },
    {
      "inputs": [],
      "name": "platformFee",
      "outputs": [
        {
          "internalType": "uint256",
          "name": "",
          "type": "uint256"
        }
      ],
      "stateMutability": "view",
      "type": "function",
      "constant": true
    },
    {
      "inputs": [],
      "name": "totalFundsAvailable",
      "outputs": [
        {
          "internalType": "uint256",
          "name": "",
          "type": "uint256"
        }
      ],
      "stateMutability": "view",
      "type": "function",
      "constant": true
    },
    {
      "inputs": [
        {
          "internalType": "uint256",
          "name": "",
          "type": "uint256"
        }
      ],
      "name": "transactions",
      "outputs": [
        {
          "internalType": "address",
          "name": "user",
          "type": "address"
        },
        {
          "internalType": "string",
          "name": "transactionType",
          "type": "string"
        },
        {
          "internalType": "uint256",
          "name": "amount",
          "type": "uint256"
        },
        {
          "internalType": "uint256",
          "name": "timestamp",
          "type": "uint256"
        }
      ],
      "stateMutability": "view",
      "type": "function",
      "constant": true
    },
    {
      "inputs": [],
      "name": "deposit",
      "outputs": [],
      "stateMutability": "payable",
      "type": "function",
      "payable": true
    },
    {
      "inputs": [
        {
          "internalType": "uint256",
          "name": "amount",
          "type": "uint256"
        }
      ],
      "name": "withdraw",
      "outputs": [],
      "stateMutability": "nonpayable",
      "type": "function"
    },
    {
      "inputs": [
        {
          "internalType": "uint256",
          "name": "amount",
          "type": "uint256"
        }
      ],
      "name": "borrow",
      "outputs": [],
      "stateMutability": "nonpayable",
      "type": "function"
    },
    {
      "inputs": [
        {
          "internalType": "address",
          "name": "user",
          "type": "address"
        }
      ],
      "name": "calculateInterest",
      "outputs": [
        {
          "internalType": "uint256",
          "name": "",
          "type": "uint256"
        }
      ],
      "stateMutability": "view",
      "type": "function",
      "constant": true
    },
    {
      "inputs": [],
      "name": "repay",
      "outputs": [],
      "stateMutability": "payable",
      "type": "function",
      "payable": true
    },
    {
      "inputs": [],
      "name": "contractBalance",
      "outputs": [
        {
          "internalType": "uint256",
          "name": "",
          "type": "uint256"
        }
      ],
      "stateMutability": "view",
      "type": "function",
      "constant": true
    },
    {
      "inputs": [
        {
          "internalType": "address",
          "name": "user",
          "type": "address"
        }
      ],
      "name": "borrowingCapacity",
      "outputs": [
        {
          "internalType": "uint256",
          "name": "",
          "type": "uint256"
        }
      ],
      "stateMutability": "view",
      "type": "function",
      "constant": true
    },
    {
      "inputs": [
        {
          "internalType": "address",
          "name": "user",
          "type": "address"
        }
      ],
      "name": "canWithdraw",
      "outputs": [
        {
          "internalType": "bool",
          "name": "",
          "type": "bool"
        }
      ],
      "stateMutability": "view",
      "type": "function",
      "constant": true
    },
    {
      "inputs": [
        {
          "internalType": "uint256",
          "name": "_interestRate",
          "type": "uint256"
        },
        {
          "internalType": "uint256",
          "name": "_penaltyRate",
          "type": "uint256"
        },
        {
          "internalType": "uint256",
          "name": "_platformFee",
          "type": "uint256"
        }
      ],
      "name": "updateParameters",
      "outputs": [],
      "stateMutability": "nonpayable",
      "type": "function"
    },
    {
      "inputs": [
        {
          "internalType": "address",
          "name": "user",
          "type": "address"
        }
      ],
      "name": "getTransactionsByUser",
      "outputs": [
        {
          "components": [
            {
              "internalType": "address",
              "name": "user",
              "type": "address"
            },
            {
              "internalType": "string",
              "name": "transactionType",
              "type": "string"
            },
            {
              "internalType": "uint256",
              "name": "amount",
              "type": "uint256"
            },
            {
              "internalType": "uint256",
              "name": "timestamp",
              "type": "uint256"
            }
          ],
          "internalType": "struct LendingPlatform.Transaction[]",
          "name": "",
          "type": "tuple[]"
        }
      ],
      "stateMutability": "view",
      "type": "function",
      "constant": true
    }
  ],
  "bytecode": "0x6080604052600580556002600655600160075534801561001e57600080fd5b5033600960006101000a81548173ffffffffffffffffffffffffffffffffffffffff021916908373ffffffffffffffffffffffffffffffffffffffff1602179055506127e18061006f6000396000f3fe6080604052600436106101355760003560e01c80638354bdbf116100ab578063b79023031161006f578063b79023031461045a578063c5ebeaec14610485578063d0e30db0146104ae578063e11932cf146104b8578063f76d50ad146104f5578063ff3c475b1461051e57610135565b80638354bdbf1461035c5780638b7afe2e146103995780638da5cb5b146103c45780639ace38c2146103ef578063ac1f7ca11461042f57610135565b806326232a2e116100fd57806326232a2e1461025957806327e235e3146102845780632e1a7d4d146102c1578063402d8883146102ea578063478230f7146102f457806362965d8e1461033157610135565b8063047ac3641461013a5780630b25ed3d1461017757806319262d30146101b45780631a9703da146101f1578063218560131461021c575b600080fd5b34801561014657600080fd5b50610161600480360381019061015c9190611b63565b610549565b60405161016e919061224d565b60405180910390f35b34801561018357600080fd5b5061019e60048036038101906101999190611b63565b61090d565b6040516101ab9190612448565b60405180910390f35b3480156101c057600080fd5b506101db60048036038101906101d69190611b63565b610925565b6040516101e8919061226f565b60405180910390f35b3480156101fd57600080fd5b506102066109ba565b6040516102139190612448565b60405180910390f35b34801561022857600080fd5b50610243600480360381019061023e9190611b63565b6109c0565b6040516102509190612448565b60405180910390f35b34801561026557600080fd5b5061026e6109d8565b60405161027b9190612448565b60405180910390f35b34801561029057600080fd5b506102ab60048036038101906102a69190611b63565b6109de565b6040516102b89190612448565b60405180910390f35b3480156102cd57600080fd5b506102e860048036038101906102e39190611b8c565b6109f6565b005b6102f2610cd7565b005b34801561030057600080fd5b5061031b60048036038101906103169190611b63565b610fa8565b6040516103289190612448565b60405180910390f35b34801561033d57600080fd5b50610346610fc0565b6040516103539190612448565b60405180910390f35b34801561036857600080fd5b50610383600480360381019061037e9190611b63565b610fc5565b6040516103909190612448565b60405180910390f35b3480156103a557600080fd5b506103ae611089565b6040516103bb9190612448565b60405180910390f35b3480156103d057600080fd5b506103d9611091565b6040516103e691906121e6565b60405180910390f35b3480156103fb57600080fd5b5061041660048036038101906104119190611b8c565b6110b7565b6040516104269493929190612201565b60405180910390f35b34801561043b57600080fd5b5061044461119f565b6040516104519190612448565b60405180910390f35b34801561046657600080fd5b5061046f6111a5565b60405161047c9190612448565b60405180910390f35b34801561049157600080fd5b506104ac60048036038101906104a79190611b8c565b6111ab565b005b6104b66115db565b005b3480156104c457600080fd5b506104df60048036038101906104da9190611b63565b61179e565b6040516104ec9190612448565b60405180910390f35b34801561050157600080fd5b5061051c60048036038101906105179190611bb5565b611875565b005b34801561052a57600080fd5b5061053361191f565b6040516105409190612448565b60405180910390f35b60606000805b600a8054905081101561061d578373ffffffffffffffffffffffffffffffffffffffff16600a82815481106105ad577f4e487b7100000000000000000000000000000000000000000000000000000000600052603260045260246000fd5b906000526020600020906004020160000160009054906101000a900473ffffffffffffffffffffffffffffffffffffffff1673ffffffffffffffffffffffffffffffffffffffff16141561060a57818061060690612696565b9250505b808061061590612696565b91505061054f565b5060008167ffffffffffffffff811115610660577f4e487b7100000000000000000000000000000000000000000000000000000000600052604160045260246000fd5b60405190808252806020026020018201604052801561069957816020015b610686611a58565b81526020019060019003908161067e5790505b5090506000805b600a80549050811015610901578573ffffffffffffffffffffffffffffffffffffffff16600a82815481106106fe577f4e487b7100000000000000000000000000000000000000000000000000000000600052603260045260246000fd5b906000526020600020906004020160000160009054906101000a900473ffffffffffffffffffffffffffffffffffffffff1673ffffffffffffffffffffffffffffffffffffffff1614156108ee57600a8181548110610786577f4e487b7100000000000000000000000000000000000000000000000000000000600052603260045260246000fd5b90600052602060002090600402016040518060800160405290816000820160009054906101000a900473ffffffffffffffffffffffffffffffffffffffff1673ffffffffffffffffffffffffffffffffffffffff1673ffffffffffffffffffffffffffffffffffffffff16815260200160018201805461080590612664565b80601f016020809104026020016040519081016040528092919081815260200182805461083190612664565b801561087e5780601f106108535761010080835404028352916020019161087e565b820191906000526020600020905b81548152906001019060200180831161086157829003601f168201915b50505050508152602001600282015481526020016003820154815250508383815181106108d4577f4e487b7100000000000000000000000000000000000000000000000000000000600052603260045260246000fd5b602002602001018190525081806108ea90612696565b9250505b80806108f990612696565b9150506106a0565b50819350505050919050565b60026020528060005260406000206000915090505481565b600080600160008473ffffffffffffffffffffffffffffffffffffffff1673ffffffffffffffffffffffffffffffffffffffff168152602001908152602001600020541480156109b3575060008060008473ffffffffffffffffffffffffffffffffffffffff1673ffffffffffffffffffffffffffffffffffffffff16815260200190815260200160002054115b9050919050565b60055481565b60036020528060005260406000206000915090505481565b60075481565b60006020528060005260406000206000915090505481565b6000600160003373ffffffffffffffffffffffffffffffffffffffff1673ffffffffffffffffffffffffffffffffffffffff1681526020019081526020016000205414610a78576040517f08c379a0000000000000000000000000000000000000000000000000000000008152600401610a6f90612348565b60405180910390fd5b806000803373ffffffffffffffffffffffffffffffffffffffff1673ffffffffffffffffffffffffffffffffffffffff168152602001908152602001600020541015610af9576040517f08c379a0000000000000000000000000000000000000000000000000000000008152600401610af090612368565b60405180910390fd5b806000803373ffffffffffffffffffffffffffffffffffffffff1673ffffffffffffffffffffffffffffffffffffffff16815260200190815260200160002054610b4391906125b5565b6000803373ffffffffffffffffffffffffffffffffffffffff1673ffffffffffffffffffffffffffffffffffffffff1681526020019081526020016000208190555080600454610b9391906125b5565b60048190555060003373ffffffffffffffffffffffffffffffffffffffff1682604051610bbf906121d1565b60006040518083038185875af1925050503d8060008114610bfc576040519150601f19603f3d011682016040523d82523d6000602084013e610c01565b606091505b5050905080610c45576040517f08c379a0000000000000000000000000000000000000000000000000000000008152600401610c3c90612308565b60405180910390fd5b610c85336040518060400160405280600881526020017f776974686472617700000000000000000000000000000000000000000000000081525084611925565b3373ffffffffffffffffffffffffffffffffffffffff167f884edad9ce6fa2440d8a54cc123490eb96d2768479d49ff9c7366125a942436483604051610ccb9190612448565b60405180910390a25050565b60003490506000610ce73361179e565b90506000600360003373ffffffffffffffffffffffffffffffffffffffff1673ffffffffffffffffffffffffffffffffffffffff16815260200190815260200160002054421115610d8e576064600654600160003373ffffffffffffffffffffffffffffffffffffffff1673ffffffffffffffffffffffffffffffffffffffff16815260200190815260200160002054610d81919061255b565b610d8b919061252a565b90505b60008183600160003373ffffffffffffffffffffffffffffffffffffffff1673ffffffffffffffffffffffffffffffffffffffff16815260200190815260200160002054610ddc91906124d4565b610de691906124d4565b905060008411610e2b576040517f08c379a0000000000000000000000000000000000000000000000000000000008152600401610e22906123e8565b60405180910390fd5b60008111610e6e576040517f08c379a0000000000000000000000000000000000000000000000000000000008152600401610e65906122e8565b60405180910390fd5b80841115610eb1576040517f08c379a0000000000000000000000000000000000000000000000000000000008152600401610ea8906123a8565b60405180910390fd5b8381610ebd91906125b5565b600160003373ffffffffffffffffffffffffffffffffffffffff1673ffffffffffffffffffffffffffffffffffffffff1681526020019081526020016000208190555083600454610f0e91906124d4565b600481905550610f54336040518060400160405280600581526020017f726570617900000000000000000000000000000000000000000000000000000081525086611925565b3373ffffffffffffffffffffffffffffffffffffffff167f5c16de4f8b59bd9caf0f49a545f25819a895ed223294290b408242e72a59423185604051610f9a9190612448565b60405180910390a250505050565b60016020528060005260406000206000915090505481565b604b81565b6000806064604b6000808673ffffffffffffffffffffffffffffffffffffffff1673ffffffffffffffffffffffffffffffffffffffff16815260200190815260200160002054611015919061255b565b61101f919061252a565b90506000600160008573ffffffffffffffffffffffffffffffffffffffff1673ffffffffffffffffffffffffffffffffffffffff168152602001908152602001600020549050808211611073576000611080565b808261107f91906125b5565b5b92505050919050565b600047905090565b600960009054906101000a900473ffffffffffffffffffffffffffffffffffffffff1681565b600a81815481106110c757600080fd5b90600052602060002090600402016000915090508060000160009054906101000a900473ffffffffffffffffffffffffffffffffffffffff169080600101805461111090612664565b80601f016020809104026020016040519081016040528092919081815260200182805461113c90612664565b80156111895780601f1061115e57610100808354040283529160200191611189565b820191906000526020600020905b81548152906001019060200180831161116c57829003601f168201915b5050505050908060020154908060030154905084565b60045481565b60085481565b600081116111ee576040517f08c379a00000000000000000000000000000000000000000000000000000000081526004016111e590612328565b60405180910390fd5b60006064604b6000803373ffffffffffffffffffffffffffffffffffffffff1673ffffffffffffffffffffffffffffffffffffffff1681526020019081526020016000205461123d919061255b565b611247919061252a565b90506000600160003373ffffffffffffffffffffffffffffffffffffffff1673ffffffffffffffffffffffffffffffffffffffff16815260200190815260200160002054905081838261129a91906124d4565b11156112db576040517f08c379a00000000000000000000000000000000000000000000000000000000081526004016112d290612408565b60405180910390fd5b600454831115611320576040517f08c379a0000000000000000000000000000000000000000000000000000000008152600401611317906123c8565b60405180910390fd5b82471015611363576040517f08c379a000000000000000000000000000000000000000000000000000000000815260040161135a90612388565b60405180910390fd5b82600160003373ffffffffffffffffffffffffffffffffffffffff1673ffffffffffffffffffffffffffffffffffffffff168152602001908152602001600020546113ae91906124d4565b600160003373ffffffffffffffffffffffffffffffffffffffff1673ffffffffffffffffffffffffffffffffffffffff1681526020019081526020016000208190555042600260003373ffffffffffffffffffffffffffffffffffffffff1673ffffffffffffffffffffffffffffffffffffffff1681526020019081526020016000208190555062278d004261144491906124d4565b600360003373ffffffffffffffffffffffffffffffffffffffff1673ffffffffffffffffffffffffffffffffffffffff168152602001908152602001600020819055508260045461149591906125b5565b60048190555060003373ffffffffffffffffffffffffffffffffffffffff16846040516114c1906121d1565b60006040518083038185875af1925050503d80600081146114fe576040519150601f19603f3d011682016040523d82523d6000602084013e611503565b606091505b5050905080611547576040517f08c379a000000000000000000000000000000000000000000000000000000000815260040161153e90612308565b60405180910390fd5b611587336040518060400160405280600681526020017f626f72726f77000000000000000000000000000000000000000000000000000081525086611925565b3373ffffffffffffffffffffffffffffffffffffffff167fcbc04eca7e9da35cb1393a6135a199ca52e450d5e9251cbd99f7847d33a36750856040516115cd9190612448565b60405180910390a250505050565b6000341161161e576040517f08c379a0000000000000000000000000000000000000000000000000000000008152600401611615906122c8565b60405180910390fd5b6000606460075434611630919061255b565b61163a919061252a565b90506000813461164a91906125b5565b9050806000803373ffffffffffffffffffffffffffffffffffffffff1673ffffffffffffffffffffffffffffffffffffffff1681526020019081526020016000205461169691906124d4565b6000803373ffffffffffffffffffffffffffffffffffffffff1673ffffffffffffffffffffffffffffffffffffffff16815260200190815260200160002081905550806004546116e691906124d4565b6004819055506002826116f9919061252a565b60085461170691906124d4565b60088190555061174c336040518060400160405280600781526020017f6465706f7369740000000000000000000000000000000000000000000000000081525083611925565b3373ffffffffffffffffffffffffffffffffffffffff167fe1fffcc4923d04b559f4d29a8bfc6cda04eb5b0d3c460751c2402c5c5cc9109c826040516117929190612448565b60405180910390a25050565b600080600160008473ffffffffffffffffffffffffffffffffffffffff1673ffffffffffffffffffffffffffffffffffffffff1681526020019081526020016000205490506000600260008573ffffffffffffffffffffffffffffffffffffffff1673ffffffffffffffffffffffffffffffffffffffff168152602001908152602001600020544261183091906125b5565b9050600060646301e13380836005548661184a919061255b565b611854919061255b565b61185e919061252a565b611868919061252a565b9050809350505050919050565b600960009054906101000a900473ffffffffffffffffffffffffffffffffffffffff1673ffffffffffffffffffffffffffffffffffffffff163373ffffffffffffffffffffffffffffffffffffffff1614611905576040517f08c379a00000000000000000000000000000000000000000000000000000000081526004016118fc90612428565b60405180910390fd5b826005819055508160068190555080600781905550505050565b60065481565b600a60405180608001604052808573ffffffffffffffffffffffffffffffffffffffff16815260200184815260200183815260200142815250908060018154018082558091505060019003906000526020600020906004020160009091909190915060008201518160000160006101000a81548173ffffffffffffffffffffffffffffffffffffffff021916908373ffffffffffffffffffffffffffffffffffffffff16021790555060208201518160010190805190602001906119ea929190611a96565b50604082015181600201556060820151816003015550508273ffffffffffffffffffffffffffffffffffffffff167f414414c4b70239b2b9ecae530ffa234500f6966a84720bc001f3873032e1ee3c838342604051611a4b9392919061228a565b60405180910390a2505050565b6040518060800160405280600073ffffffffffffffffffffffffffffffffffffffff1681526020016060815260200160008152602001600081525090565b828054611aa290612664565b90600052602060002090601f016020900481019282611ac45760008555611b0b565b82601f10611add57805160ff1916838001178555611b0b565b82800160010185558215611b0b579182015b82811115611b0a578251825591602001919060010190611aef565b5b509050611b189190611b1c565b5090565b5b80821115611b35576000816000905550600101611b1d565b5090565b600081359050611b488161277d565b92915050565b600081359050611b5d81612794565b92915050565b600060208284031215611b7557600080fd5b6000611b8384828501611b39565b91505092915050565b600060208284031215611b9e57600080fd5b6000611bac84828501611b4e565b91505092915050565b600080600060608486031215611bca57600080fd5b6000611bd886828701611b4e565b9350506020611be986828701611b4e565b9250506040611bfa86828701611b4e565b9150509250925092565b6000611c108383612150565b905092915050565b611c21816125e9565b82525050565b611c30816125e9565b82525050565b6000611c4182612473565b611c4b8185612496565b935083602082028501611c5d85612463565b8060005b85811015611c995784840389528151611c7a8582611c04565b9450611c8583612489565b925060208a01995050600181019050611c61565b50829750879550505050505092915050565b611cb4816125fb565b82525050565b6000611cc58261247e565b611ccf81856124b2565b9350611cdf818560208601612631565b611ce88161276c565b840191505092915050565b6000611cfe8261247e565b611d0881856124c3565b9350611d18818560208601612631565b611d218161276c565b840191505092915050565b6000611d396025836124c3565b91507f4465706f73697420616d6f756e74206d7573742062652067726561746572207460008301527f68616e20300000000000000000000000000000000000000000000000000000006020830152604082019050919050565b6000611d9f601c836124c3565b91507f4e6f206f75747374616e64696e67206c6f616e20746f207265706179000000006000830152602082019050919050565b6000611ddf600f836124c3565b91507f5472616e73666572206661696c656400000000000000000000000000000000006000830152602082019050919050565b6000611e1f601d836124c3565b91507f416d6f756e74206d7573742062652067726561746572207468616e20300000006000830152602082019050919050565b6000611e5f6033836124c3565b91507f4f75747374616e64696e67206c6f616e206578697374732c2063616e6e6f742060008301527f776974686472617720636f6c6c61746572616c000000000000000000000000006020830152604082019050919050565b6000611ec56020836124c3565b91507f496e73756666696369656e742062616c616e636520746f2077697468647261776000830152602082019050919050565b6000611f056027836124c3565b91507f436f6e747261637420646f6573206e6f74206861766520656e6f756768206c6960008301527f71756964697479000000000000000000000000000000000000000000000000006020830152604082019050919050565b6000611f6b6026836124c3565b91507f43616e6e6f74207265706179206d6f7265207468616e20746865206f7765642060008301527f616d6f756e7400000000000000000000000000000000000000000000000000006020830152604082019050919050565b6000611fd1602a836124c3565b91507f4e6f7420656e6f7567682066756e647320617661696c61626c6520696e20746860008301527f6520636f6e7472616374000000000000000000000000000000000000000000006020830152604082019050919050565b60006120376027836124c3565b91507f52657061796d656e7420616d6f756e74206d757374206265206772656174657260008301527f207468616e2030000000000000000000000000000000000000000000000000006020830152604082019050919050565b600061209d6028836124c3565b91507f4578636565647320626f72726f77206c696d6974206261736564206f6e20636f60008301527f6c6c61746572616c0000000000000000000000000000000000000000000000006020830152604082019050919050565b60006121036000836124a7565b9150600082019050919050565b600061211d6016836124c3565b91507f4e6f742074686520636f6e7472616374206f776e6572000000000000000000006000830152602082019050919050565b60006080830160008301516121686000860182611c18565b50602083015184820360208601526121808282611cba565b915050604083015161219560408601826121b3565b5060608301516121a860608601826121b3565b508091505092915050565b6121bc81612627565b82525050565b6121cb81612627565b82525050565b60006121dc826120f6565b9150819050919050565b60006020820190506121fb6000830184611c27565b92915050565b60006080820190506122166000830187611c27565b81810360208301526122288186611cf3565b905061223760408301856121c2565b61224460608301846121c2565b95945050505050565b600060208201905081810360008301526122678184611c36565b905092915050565b60006020820190506122846000830184611cab565b92915050565b600060608201905081810360008301526122a48186611cf3565b90506122b360208301856121c2565b6122c060408301846121c2565b949350505050565b600060208201905081810360008301526122e181611d2c565b9050919050565b6000602082019050818103600083015261230181611d92565b9050919050565b6000602082019050818103600083015261232181611dd2565b9050919050565b6000602082019050818103600083015261234181611e12565b9050919050565b6000602082019050818103600083015261236181611e52565b9050919050565b6000602082019050818103600083015261238181611eb8565b9050919050565b600060208201905081810360008301526123a181611ef8565b9050919050565b600060208201905081810360008301526123c181611f5e565b9050919050565b600060208201905081810360008301526123e181611fc4565b9050919050565b600060208201905081810360008301526124018161202a565b9050919050565b6000602082019050818103600083015261242181612090565b9050919050565b6000602082019050818103600083015261244181612110565b9050919050565b600060208201905061245d60008301846121c2565b92915050565b6000819050602082019050919050565b600081519050919050565b600081519050919050565b6000602082019050919050565b600082825260208201905092915050565b600081905092915050565b600082825260208201905092915050565b600082825260208201905092915050565b60006124df82612627565b91506124ea83612627565b9250827fffffffffffffffffffffffffffffffffffffffffffffffffffffffffffffffff0382111561251f5761251e6126df565b5b828201905092915050565b600061253582612627565b915061254083612627565b9250826125505761254f61270e565b5b828204905092915050565b600061256682612627565b915061257183612627565b9250817fffffffffffffffffffffffffffffffffffffffffffffffffffffffffffffffff04831182151516156125aa576125a96126df565b5b828202905092915050565b60006125c082612627565b91506125cb83612627565b9250828210156125de576125dd6126df565b5b828203905092915050565b60006125f482612607565b9050919050565b60008115159050919050565b600073ffffffffffffffffffffffffffffffffffffffff82169050919050565b6000819050919050565b60005b8381101561264f578082015181840152602081019050612634565b8381111561265e576000848401525b50505050565b6000600282049050600182168061267c57607f821691505b602082108114156126905761268f61273d565b5b50919050565b60006126a182612627565b91507fffffffffffffffffffffffffffffffffffffffffffffffffffffffffffffffff8214156126d4576126d36126df565b5b600182019050919050565b7f4e487b7100000000000000000000000000000000000000000000000000000000600052601160045260246000fd5b7f4e487b7100000000000000000000000000000000000000000000000000000000600052601260045260246000fd5b7f4e487b7100000000000000000000000000000000000000000000000000000000600052602260045260246000fd5b6000601f19601f8301169050919050565b612786816125e9565b811461279157600080fd5b50565b61279d81612627565b81146127a857600080fd5b5056fea2646970667358221220372d9f3035b1f0529ff9e6f87e878d486a2a880c3158f751a858409b543d22ac64736f6c63430008000033",
  "immutableReferences": {},
  "source": "// SPDX-License-Identifier: MIT\r\npragma solidity ^0.8.0;\r\n\r\ncontract LendingPlatform {\r\n\r\n    // State Variables\r\n    mapping(address => uint256) public balances;          // User collateral balances\r\n    mapping(address => uint256) public borrowedAmounts;   // User borrowed amounts\r\n    mapping(address => uint256) public loanStartTimes;    // Loan start times for interest calculation\r\n    mapping(address => uint256) public loanDueDates;      // Loan due dates\r\n\r\n    uint256 public totalFundsAvailable;                   // Total funds available for borrowing\r\n    uint256 public constant LTV = 75;                     // Loan-to-Value ratio (e.g., 75%)\r\n    uint256 public annualInterestRate = 5;                // 5% annual interest rate\r\n    uint256 public latePenaltyRate = 2;                   // 2% penalty for overdue loans\r\n    uint256 public platformFee = 1;                       // 1% service charge\r\n    uint256 public insuranceFund;                         // Insurance fund pool\r\n\r\n    // Address of the contract owner (deployer)\r\n    address public owner;\r\n\r\n    // Struct to store transaction details\r\n    struct Transaction {\r\n        address user;\r\n        string transactionType; // e.g., \"deposit\", \"withdraw\", \"borrow\", \"repay\"\r\n        uint256 amount;\r\n        uint256 timestamp;\r\n    }\r\n\r\n    // Array to store all transactions\r\n    Transaction[] public transactions;\r\n\r\n    // Events for transparency\r\n    event Deposit(address indexed user, uint256 amount);\r\n    event Withdraw(address indexed user, uint256 amount);\r\n    event Borrow(address indexed user, uint256 amount);\r\n    event Repay(address indexed user, uint256 amount);\r\n    event TransactionRecorded(address indexed user, string transactionType, uint256 amount, uint256 timestamp);\r\n\r\n    // Constructor to set the owner\r\n    constructor() {\r\n        owner = msg.sender; // Set the deployer as the owner\r\n    }\r\n\r\n    // Modifier to restrict access to only the owner\r\n    modifier onlyOwner() {\r\n        require(msg.sender == owner, \"Not the contract owner\");\r\n        _;\r\n    }\r\n\r\n    // Record a transaction\r\n    function recordTransaction(address user, string memory transactionType, uint256 amount) internal {\r\n        transactions.push(Transaction({\r\n            user: user,\r\n            transactionType: transactionType,\r\n            amount: amount,\r\n            timestamp: block.timestamp\r\n        }));\r\n\r\n        emit TransactionRecorded(user, transactionType, amount, block.timestamp);\r\n    }\r\n\r\n    // Deposit funds into the contract (collateral)\r\n    function deposit() public payable {\r\n        require(msg.value > 0, \"Deposit amount must be greater than 0\");\r\n\r\n        uint256 fee = msg.value * platformFee / 100;\r\n        uint256 netAmount = msg.value - fee;\r\n\r\n        balances[msg.sender] = balances[msg.sender] + netAmount;\r\n        totalFundsAvailable = totalFundsAvailable + netAmount;\r\n        insuranceFund = insuranceFund + (fee / 2); // 50% of fees go to the insurance fund\r\n\r\n        recordTransaction(msg.sender, \"deposit\", netAmount);\r\n        emit Deposit(msg.sender, netAmount);\r\n    }\r\n\r\n    // Withdraw collateral (only if user has no outstanding loans)\r\n    function withdraw(uint256 amount) public {\r\n        require(borrowedAmounts[msg.sender] == 0, \"Outstanding loan exists, cannot withdraw collateral\");\r\n        require(balances[msg.sender] >= amount, \"Insufficient balance to withdraw\");\r\n\r\n        balances[msg.sender] = balances[msg.sender] - amount;\r\n        totalFundsAvailable = totalFundsAvailable - amount;\r\n\r\n        (bool success, ) = payable(msg.sender).call{value: amount}(\"\");\r\n        require(success, \"Transfer failed\");\r\n\r\n        recordTransaction(msg.sender, \"withdraw\", amount);\r\n        emit Withdraw(msg.sender, amount);\r\n    }\r\n\r\n    // Borrow funds from the contract\r\n    function borrow(uint256 amount) public {\r\n        require(amount > 0, \"Amount must be greater than 0\");\r\n        uint256 maxBorrowable = balances[msg.sender] * LTV / 100; // Calculate max borrowable based on LTV\r\n        uint256 currentDebt = borrowedAmounts[msg.sender];\r\n\r\n        require(currentDebt + amount <= maxBorrowable, \"Exceeds borrow limit based on collateral\");\r\n        require(amount <= totalFundsAvailable, \"Not enough funds available in the contract\");\r\n        require(address(this).balance >= amount, \"Contract does not have enough liquidity\");\r\n\r\n        borrowedAmounts[msg.sender] = borrowedAmounts[msg.sender] + amount;\r\n        loanStartTimes[msg.sender] = block.timestamp;\r\n        loanDueDates[msg.sender] = block.timestamp + 30 days; // Loan repayment due in 30 days\r\n        totalFundsAvailable = totalFundsAvailable - amount;\r\n\r\n        (bool success, ) = payable(msg.sender).call{value: amount}(\"\");\r\n        require(success, \"Transfer failed\");\r\n\r\n        recordTransaction(msg.sender, \"borrow\", amount);\r\n        emit Borrow(msg.sender, amount);\r\n    }\r\n\r\n    // Calculate interest based on loan duration\r\n    function calculateInterest(address user) public view returns (uint256) {\r\n        uint256 debt = borrowedAmounts[user];\r\n        uint256 duration = block.timestamp - loanStartTimes[user];\r\n        uint256 interest = debt * annualInterestRate * duration / 365 days / 100;\r\n        return interest;\r\n    }\r\n\r\n    // Repay borrowed funds partially or fully\r\n    function repay() public payable {\r\n        uint256 amount = msg.value; // Repayment amount is the value sent with the transaction\r\n        uint256 interest = calculateInterest(msg.sender);\r\n        uint256 penalty = 0;\r\n\r\n        // Apply penalty if repayment is overdue\r\n        if (block.timestamp > loanDueDates[msg.sender]) {\r\n            penalty = borrowedAmounts[msg.sender] * latePenaltyRate / 100;\r\n        }\r\n\r\n        uint256 totalOwed = borrowedAmounts[msg.sender] + interest + penalty;\r\n        require(amount > 0, \"Repayment amount must be greater than 0\");\r\n        require(totalOwed > 0, \"No outstanding loan to repay\");\r\n        require(amount <= totalOwed, \"Cannot repay more than the owed amount\");\r\n\r\n        borrowedAmounts[msg.sender] = totalOwed - amount;\r\n        totalFundsAvailable = totalFundsAvailable + amount;\r\n\r\n        recordTransaction(msg.sender, \"repay\", amount);\r\n        emit Repay(msg.sender, amount);\r\n    }\r\n\r\n    // View function to check the contract's ETH balance\r\n    function contractBalance() public view returns (uint256) {\r\n        return address(this).balance;\r\n    }\r\n\r\n    // View function to check the user's borrowing capacity\r\n    function borrowingCapacity(address user) public view returns (uint256) {\r\n        uint256 maxBorrowable = balances[user] * LTV / 100;\r\n        uint256 debt = borrowedAmounts[user];\r\n        return maxBorrowable > debt ? maxBorrowable - debt : 0;\r\n    }\r\n\r\n    // Get user eligibility for withdrawal\r\n    function canWithdraw(address user) public view returns (bool) {\r\n        return borrowedAmounts[user] == 0 && balances[user] > 0;\r\n    }\r\n\r\n    // Admin function to update platform parameters\r\n    function updateParameters(uint256 _interestRate, uint256 _penaltyRate, uint256 _platformFee) public onlyOwner {\r\n        annualInterestRate = _interestRate;\r\n        latePenaltyRate = _penaltyRate;\r\n        platformFee = _platformFee;\r\n    }\r\n\r\n  function getTransactionsByUser(address user) public view returns (Transaction[] memory) {\r\n    uint256 count = 0;\r\n\r\n    // Count transactions for the user\r\n    for (uint256 i = 0; i < transactions.length; i++) {\r\n        if (transactions[i].user == user) {\r\n            count++;\r\n        }\r\n    }\r\n\r\n    // Create an array to hold user's transactions\r\n    Transaction[] memory userTransactions = new Transaction[](count);\r\n    uint256 index = 0;\r\n\r\n    // Populate the array\r\n    for (uint256 i = 0; i < transactions.length; i++) {\r\n        if (transactions[i].user == user) {\r\n            userTransactions[index] = transactions[i];\r\n            index++;\r\n        }\r\n    }\r\n\r\n    return userTransactions;\r\n}\r\n\r\n}\r\n",
  "sourcePath": "C:\\Users\\HP\\Desktop\\test-app\\contracts\\LendingPlatform.sol",
  "compiler": {
    "name": "solc",
    "version": "0.8.0+commit.c7dfd78e.Emscripten.clang"
  },
  "schemaVersion": "3.4.16",
  "updatedAt": "2024-12-23T12:52:57.023Z",
  "networkType": "ethereum",
  "devdoc": {
    "kind": "dev",
    "methods": {},
    "version": 1
  },
  "userdoc": {
    "kind": "user",
    "methods": {},
    "version": 1
  }
}