{
  "contractName": "LendingPlatform",
  "abi": [
    {
      "inputs": [],
      "stateMutability": "nonpayable",
      "type": "constructor"
    },
    {
      "anonymous": false,
      "inputs": [
        {
          "indexed": true,
          "internalType": "address",
          "name": "user",
          "type": "address"
        },
        {
          "indexed": false,
          "internalType": "uint256",
          "name": "amount",
          "type": "uint256"
        }
      ],
      "name": "Borrow",
      "type": "event"
    },
    {
      "anonymous": false,
      "inputs": [
        {
          "indexed": true,
          "internalType": "address",
          "name": "user",
          "type": "address"
        },
        {
          "indexed": false,
          "internalType": "uint256",
          "name": "amount",
          "type": "uint256"
        }
      ],
      "name": "Deposit",
      "type": "event"
    },
    {
      "anonymous": false,
      "inputs": [
        {
          "indexed": true,
          "internalType": "address",
          "name": "user",
          "type": "address"
        },
        {
          "indexed": false,
          "internalType": "uint256",
          "name": "amount",
          "type": "uint256"
        }
      ],
      "name": "Repay",
      "type": "event"
    },
    {
      "anonymous": false,
      "inputs": [
        {
          "indexed": true,
          "internalType": "address",
          "name": "user",
          "type": "address"
        },
        {
          "indexed": false,
          "internalType": "uint256",
          "name": "amount",
          "type": "uint256"
        }
      ],
      "name": "Withdraw",
      "type": "event"
    },
    {
      "inputs": [],
      "name": "LTV",
      "outputs": [
        {
          "internalType": "uint256",
          "name": "",
          "type": "uint256"
        }
      ],
      "stateMutability": "view",
      "type": "function",
      "constant": true
    },
    {
      "inputs": [],
      "name": "annualInterestRate",
      "outputs": [
        {
          "internalType": "uint256",
          "name": "",
          "type": "uint256"
        }
      ],
      "stateMutability": "view",
      "type": "function",
      "constant": true
    },
    {
      "inputs": [
        {
          "internalType": "address",
          "name": "",
          "type": "address"
        }
      ],
      "name": "balances",
      "outputs": [
        {
          "internalType": "uint256",
          "name": "",
          "type": "uint256"
        }
      ],
      "stateMutability": "view",
      "type": "function",
      "constant": true
    },
    {
      "inputs": [
        {
          "internalType": "address",
          "name": "",
          "type": "address"
        }
      ],
      "name": "borrowedAmounts",
      "outputs": [
        {
          "internalType": "uint256",
          "name": "",
          "type": "uint256"
        }
      ],
      "stateMutability": "view",
      "type": "function",
      "constant": true
    },
    {
      "inputs": [],
      "name": "insuranceFund",
      "outputs": [
        {
          "internalType": "uint256",
          "name": "",
          "type": "uint256"
        }
      ],
      "stateMutability": "view",
      "type": "function",
      "constant": true
    },
    {
      "inputs": [],
      "name": "latePenaltyRate",
      "outputs": [
        {
          "internalType": "uint256",
          "name": "",
          "type": "uint256"
        }
      ],
      "stateMutability": "view",
      "type": "function",
      "constant": true
    },
    {
      "inputs": [
        {
          "internalType": "address",
          "name": "",
          "type": "address"
        }
      ],
      "name": "loanDueDates",
      "outputs": [
        {
          "internalType": "uint256",
          "name": "",
          "type": "uint256"
        }
      ],
      "stateMutability": "view",
      "type": "function",
      "constant": true
    },
    {
      "inputs": [
        {
          "internalType": "address",
          "name": "",
          "type": "address"
        }
      ],
      "name": "loanStartTimes",
      "outputs": [
        {
          "internalType": "uint256",
          "name": "",
          "type": "uint256"
        }
      ],
      "stateMutability": "view",
      "type": "function",
      "constant": true
    },
    {
      "inputs": [],
      "name": "owner",
      "outputs": [
        {
          "internalType": "address",
          "name": "",
          "type": "address"
        }
      ],
      "stateMutability": "view",
      "type": "function",
      "constant": true
    },
    {
      "inputs": [],
      "name": "platformFee",
      "outputs": [
        {
          "internalType": "uint256",
          "name": "",
          "type": "uint256"
        }
      ],
      "stateMutability": "view",
      "type": "function",
      "constant": true
    },
    {
      "inputs": [],
      "name": "totalFundsAvailable",
      "outputs": [
        {
          "internalType": "uint256",
          "name": "",
          "type": "uint256"
        }
      ],
      "stateMutability": "view",
      "type": "function",
      "constant": true
    },
    {
      "inputs": [],
      "name": "deposit",
      "outputs": [],
      "stateMutability": "payable",
      "type": "function",
      "payable": true
    },
    {
      "inputs": [
        {
          "internalType": "uint256",
          "name": "amount",
          "type": "uint256"
        }
      ],
      "name": "withdraw",
      "outputs": [],
      "stateMutability": "nonpayable",
      "type": "function"
    },
    {
      "inputs": [
        {
          "internalType": "uint256",
          "name": "amount",
          "type": "uint256"
        }
      ],
      "name": "borrow",
      "outputs": [],
      "stateMutability": "nonpayable",
      "type": "function"
    },
    {
      "inputs": [
        {
          "internalType": "address",
          "name": "user",
          "type": "address"
        }
      ],
      "name": "calculateInterest",
      "outputs": [
        {
          "internalType": "uint256",
          "name": "",
          "type": "uint256"
        }
      ],
      "stateMutability": "view",
      "type": "function",
      "constant": true
    },
    {
      "inputs": [],
      "name": "repay",
      "outputs": [],
      "stateMutability": "payable",
      "type": "function",
      "payable": true
    },
    {
      "inputs": [],
      "name": "contractBalance",
      "outputs": [
        {
          "internalType": "uint256",
          "name": "",
          "type": "uint256"
        }
      ],
      "stateMutability": "view",
      "type": "function",
      "constant": true
    },
    {
      "inputs": [
        {
          "internalType": "address",
          "name": "user",
          "type": "address"
        }
      ],
      "name": "borrowingCapacity",
      "outputs": [
        {
          "internalType": "uint256",
          "name": "",
          "type": "uint256"
        }
      ],
      "stateMutability": "view",
      "type": "function",
      "constant": true
    },
    {
      "inputs": [
        {
          "internalType": "address",
          "name": "user",
          "type": "address"
        }
      ],
      "name": "canWithdraw",
      "outputs": [
        {
          "internalType": "bool",
          "name": "",
          "type": "bool"
        }
      ],
      "stateMutability": "view",
      "type": "function",
      "constant": true
    },
    {
      "inputs": [
        {
          "internalType": "uint256",
          "name": "_interestRate",
          "type": "uint256"
        },
        {
          "internalType": "uint256",
          "name": "_penaltyRate",
          "type": "uint256"
        },
        {
          "internalType": "uint256",
          "name": "_platformFee",
          "type": "uint256"
        }
      ],
      "name": "updateParameters",
      "outputs": [],
      "stateMutability": "nonpayable",
      "type": "function"
    }
  ],
  "bytecode": "0x6080604052600580556002600655600160075534801561001e57600080fd5b5033600960006101000a81548173ffffffffffffffffffffffffffffffffffffffff021916908373ffffffffffffffffffffffffffffffffffffffff160217905550611c238061006f6000396000f3fe60806040526004361061011f5760003560e01c80638354bdbf116100a0578063c5ebeaec11610064578063c5ebeaec146103f2578063d0e30db01461041b578063e11932cf14610425578063f76d50ad14610462578063ff3c475b1461048b5761011f565b80638354bdbf146103095780638b7afe2e146103465780638da5cb5b14610371578063ac1f7ca11461039c578063b7902303146103c75761011f565b806327e235e3116100e757806327e235e3146102315780632e1a7d4d1461026e578063402d888314610297578063478230f7146102a157806362965d8e146102de5761011f565b80630b25ed3d1461012457806319262d30146101615780631a9703da1461019e57806321856013146101c957806326232a2e14610206575b600080fd5b34801561013057600080fd5b5061014b60048036038101906101469190611310565b6104b6565b60405161015891906119cd565b60405180910390f35b34801561016d57600080fd5b5061018860048036038101906101839190611310565b6104ce565b6040516101959190611832565b60405180910390f35b3480156101aa57600080fd5b506101b3610563565b6040516101c091906119cd565b60405180910390f35b3480156101d557600080fd5b506101f060048036038101906101eb9190611310565b610569565b6040516101fd91906119cd565b60405180910390f35b34801561021257600080fd5b5061021b610581565b60405161022891906119cd565b60405180910390f35b34801561023d57600080fd5b5061025860048036038101906102539190611310565b610587565b60405161026591906119cd565b60405180910390f35b34801561027a57600080fd5b5061029560048036038101906102909190611339565b61059f565b005b61029f610840565b005b3480156102ad57600080fd5b506102c860048036038101906102c39190611310565b610ad1565b6040516102d591906119cd565b60405180910390f35b3480156102ea57600080fd5b506102f3610ae9565b60405161030091906119cd565b60405180910390f35b34801561031557600080fd5b50610330600480360381019061032b9190611310565b610aee565b60405161033d91906119cd565b60405180910390f35b34801561035257600080fd5b5061035b610bb2565b60405161036891906119cd565b60405180910390f35b34801561037d57600080fd5b50610386610bba565b6040516103939190611817565b60405180910390f35b3480156103a857600080fd5b506103b1610be0565b6040516103be91906119cd565b60405180910390f35b3480156103d357600080fd5b506103dc610be6565b6040516103e991906119cd565b60405180910390f35b3480156103fe57600080fd5b5061041960048036038101906104149190611339565b610bec565b005b610423610fdc565b005b34801561043157600080fd5b5061044c60048036038101906104479190611310565b61115f565b60405161045991906119cd565b60405180910390f35b34801561046e57600080fd5b5061048960048036038101906104849190611362565b611236565b005b34801561049757600080fd5b506104a06112e0565b6040516104ad91906119cd565b60405180910390f35b60026020528060005260406000206000915090505481565b600080600160008473ffffffffffffffffffffffffffffffffffffffff1673ffffffffffffffffffffffffffffffffffffffff1681526020019081526020016000205414801561055c575060008060008473ffffffffffffffffffffffffffffffffffffffff1673ffffffffffffffffffffffffffffffffffffffff16815260200190815260200160002054115b9050919050565b60055481565b60036020528060005260406000206000915090505481565b60075481565b60006020528060005260406000206000915090505481565b6000600160003373ffffffffffffffffffffffffffffffffffffffff1673ffffffffffffffffffffffffffffffffffffffff1681526020019081526020016000205414610621576040517f08c379a0000000000000000000000000000000000000000000000000000000008152600401610618906118cd565b60405180910390fd5b806000803373ffffffffffffffffffffffffffffffffffffffff1673ffffffffffffffffffffffffffffffffffffffff1681526020019081526020016000205410156106a2576040517f08c379a0000000000000000000000000000000000000000000000000000000008152600401610699906118ed565b60405180910390fd5b806000803373ffffffffffffffffffffffffffffffffffffffff1673ffffffffffffffffffffffffffffffffffffffff168152602001908152602001600020546106ec9190611ae5565b6000803373ffffffffffffffffffffffffffffffffffffffff1673ffffffffffffffffffffffffffffffffffffffff168152602001908152602001600020819055508060045461073c9190611ae5565b60048190555060003373ffffffffffffffffffffffffffffffffffffffff168260405161076890611802565b60006040518083038185875af1925050503d80600081146107a5576040519150601f19603f3d011682016040523d82523d6000602084013e6107aa565b606091505b50509050806107ee576040517f08c379a00000000000000000000000000000000000000000000000000000000081526004016107e59061188d565b60405180910390fd5b3373ffffffffffffffffffffffffffffffffffffffff167f884edad9ce6fa2440d8a54cc123490eb96d2768479d49ff9c7366125a94243648360405161083491906119cd565b60405180910390a25050565b600034905060006108503361115f565b90506000600360003373ffffffffffffffffffffffffffffffffffffffff1673ffffffffffffffffffffffffffffffffffffffff168152602001908152602001600020544211156108f7576064600654600160003373ffffffffffffffffffffffffffffffffffffffff1673ffffffffffffffffffffffffffffffffffffffff168152602001908152602001600020546108ea9190611a8b565b6108f49190611a5a565b90505b60008183600160003373ffffffffffffffffffffffffffffffffffffffff1673ffffffffffffffffffffffffffffffffffffffff168152602001908152602001600020546109459190611a04565b61094f9190611a04565b905060008411610994576040517f08c379a000000000000000000000000000000000000000000000000000000000815260040161098b9061196d565b60405180910390fd5b600081116109d7576040517f08c379a00000000000000000000000000000000000000000000000000000000081526004016109ce9061186d565b60405180910390fd5b80841115610a1a576040517f08c379a0000000000000000000000000000000000000000000000000000000008152600401610a119061192d565b60405180910390fd5b8381610a269190611ae5565b600160003373ffffffffffffffffffffffffffffffffffffffff1673ffffffffffffffffffffffffffffffffffffffff1681526020019081526020016000208190555083600454610a779190611a04565b6004819055503373ffffffffffffffffffffffffffffffffffffffff167f5c16de4f8b59bd9caf0f49a545f25819a895ed223294290b408242e72a59423185604051610ac391906119cd565b60405180910390a250505050565b60016020528060005260406000206000915090505481565b604b81565b6000806064604b6000808673ffffffffffffffffffffffffffffffffffffffff1673ffffffffffffffffffffffffffffffffffffffff16815260200190815260200160002054610b3e9190611a8b565b610b489190611a5a565b90506000600160008573ffffffffffffffffffffffffffffffffffffffff1673ffffffffffffffffffffffffffffffffffffffff168152602001908152602001600020549050808211610b9c576000610ba9565b8082610ba89190611ae5565b5b92505050919050565b600047905090565b600960009054906101000a900473ffffffffffffffffffffffffffffffffffffffff1681565b60045481565b60085481565b60008111610c2f576040517f08c379a0000000000000000000000000000000000000000000000000000000008152600401610c26906118ad565b60405180910390fd5b60006064604b6000803373ffffffffffffffffffffffffffffffffffffffff1673ffffffffffffffffffffffffffffffffffffffff16815260200190815260200160002054610c7e9190611a8b565b610c889190611a5a565b90506000600160003373ffffffffffffffffffffffffffffffffffffffff1673ffffffffffffffffffffffffffffffffffffffff168152602001908152602001600020549050818382610cdb9190611a04565b1115610d1c576040517f08c379a0000000000000000000000000000000000000000000000000000000008152600401610d139061198d565b60405180910390fd5b600454831115610d61576040517f08c379a0000000000000000000000000000000000000000000000000000000008152600401610d589061194d565b60405180910390fd5b82471015610da4576040517f08c379a0000000000000000000000000000000000000000000000000000000008152600401610d9b9061190d565b60405180910390fd5b82600160003373ffffffffffffffffffffffffffffffffffffffff1673ffffffffffffffffffffffffffffffffffffffff16815260200190815260200160002054610def9190611a04565b600160003373ffffffffffffffffffffffffffffffffffffffff1673ffffffffffffffffffffffffffffffffffffffff1681526020019081526020016000208190555042600260003373ffffffffffffffffffffffffffffffffffffffff1673ffffffffffffffffffffffffffffffffffffffff1681526020019081526020016000208190555062278d0042610e859190611a04565b600360003373ffffffffffffffffffffffffffffffffffffffff1673ffffffffffffffffffffffffffffffffffffffff1681526020019081526020016000208190555082600454610ed69190611ae5565b60048190555060003373ffffffffffffffffffffffffffffffffffffffff1684604051610f0290611802565b60006040518083038185875af1925050503d8060008114610f3f576040519150601f19603f3d011682016040523d82523d6000602084013e610f44565b606091505b5050905080610f88576040517f08c379a0000000000000000000000000000000000000000000000000000000008152600401610f7f9061188d565b60405180910390fd5b3373ffffffffffffffffffffffffffffffffffffffff167fcbc04eca7e9da35cb1393a6135a199ca52e450d5e9251cbd99f7847d33a3675085604051610fce91906119cd565b60405180910390a250505050565b6000341161101f576040517f08c379a00000000000000000000000000000000000000000000000000000000081526004016110169061184d565b60405180910390fd5b60006064600754346110319190611a8b565b61103b9190611a5a565b90506000813461104b9190611ae5565b9050806000803373ffffffffffffffffffffffffffffffffffffffff1673ffffffffffffffffffffffffffffffffffffffff168152602001908152602001600020546110979190611a04565b6000803373ffffffffffffffffffffffffffffffffffffffff1673ffffffffffffffffffffffffffffffffffffffff16815260200190815260200160002081905550806004546110e79190611a04565b6004819055506002826110fa9190611a5a565b6008546111079190611a04565b6008819055503373ffffffffffffffffffffffffffffffffffffffff167fe1fffcc4923d04b559f4d29a8bfc6cda04eb5b0d3c460751c2402c5c5cc9109c8260405161115391906119cd565b60405180910390a25050565b600080600160008473ffffffffffffffffffffffffffffffffffffffff1673ffffffffffffffffffffffffffffffffffffffff1681526020019081526020016000205490506000600260008573ffffffffffffffffffffffffffffffffffffffff1673ffffffffffffffffffffffffffffffffffffffff16815260200190815260200160002054426111f19190611ae5565b9050600060646301e13380836005548661120b9190611a8b565b6112159190611a8b565b61121f9190611a5a565b6112299190611a5a565b9050809350505050919050565b600960009054906101000a900473ffffffffffffffffffffffffffffffffffffffff1673ffffffffffffffffffffffffffffffffffffffff163373ffffffffffffffffffffffffffffffffffffffff16146112c6576040517f08c379a00000000000000000000000000000000000000000000000000000000081526004016112bd906119ad565b60405180910390fd5b826005819055508160068190555080600781905550505050565b60065481565b6000813590506112f581611bbf565b92915050565b60008135905061130a81611bd6565b92915050565b60006020828403121561132257600080fd5b6000611330848285016112e6565b91505092915050565b60006020828403121561134b57600080fd5b6000611359848285016112fb565b91505092915050565b60008060006060848603121561137757600080fd5b6000611385868287016112fb565b9350506020611396868287016112fb565b92505060406113a7868287016112fb565b9150509250925092565b6113ba81611b19565b82525050565b6113c981611b2b565b82525050565b60006113dc6025836119f3565b91507f4465706f73697420616d6f756e74206d7573742062652067726561746572207460008301527f68616e20300000000000000000000000000000000000000000000000000000006020830152604082019050919050565b6000611442601c836119f3565b91507f4e6f206f75747374616e64696e67206c6f616e20746f207265706179000000006000830152602082019050919050565b6000611482600f836119f3565b91507f5472616e73666572206661696c656400000000000000000000000000000000006000830152602082019050919050565b60006114c2601d836119f3565b91507f416d6f756e74206d7573742062652067726561746572207468616e20300000006000830152602082019050919050565b60006115026033836119f3565b91507f4f75747374616e64696e67206c6f616e206578697374732c2063616e6e6f742060008301527f776974686472617720636f6c6c61746572616c000000000000000000000000006020830152604082019050919050565b60006115686020836119f3565b91507f496e73756666696369656e742062616c616e636520746f2077697468647261776000830152602082019050919050565b60006115a86027836119f3565b91507f436f6e747261637420646f6573206e6f74206861766520656e6f756768206c6960008301527f71756964697479000000000000000000000000000000000000000000000000006020830152604082019050919050565b600061160e6026836119f3565b91507f43616e6e6f74207265706179206d6f7265207468616e20746865206f7765642060008301527f616d6f756e7400000000000000000000000000000000000000000000000000006020830152604082019050919050565b6000611674602a836119f3565b91507f4e6f7420656e6f7567682066756e647320617661696c61626c6520696e20746860008301527f6520636f6e7472616374000000000000000000000000000000000000000000006020830152604082019050919050565b60006116da6027836119f3565b91507f52657061796d656e7420616d6f756e74206d757374206265206772656174657260008301527f207468616e2030000000000000000000000000000000000000000000000000006020830152604082019050919050565b60006117406028836119f3565b91507f4578636565647320626f72726f77206c696d6974206261736564206f6e20636f60008301527f6c6c61746572616c0000000000000000000000000000000000000000000000006020830152604082019050919050565b60006117a66000836119e8565b9150600082019050919050565b60006117c06016836119f3565b91507f4e6f742074686520636f6e7472616374206f776e6572000000000000000000006000830152602082019050919050565b6117fc81611b57565b82525050565b600061180d82611799565b9150819050919050565b600060208201905061182c60008301846113b1565b92915050565b600060208201905061184760008301846113c0565b92915050565b60006020820190508181036000830152611866816113cf565b9050919050565b6000602082019050818103600083015261188681611435565b9050919050565b600060208201905081810360008301526118a681611475565b9050919050565b600060208201905081810360008301526118c6816114b5565b9050919050565b600060208201905081810360008301526118e6816114f5565b9050919050565b600060208201905081810360008301526119068161155b565b9050919050565b600060208201905081810360008301526119268161159b565b9050919050565b6000602082019050818103600083015261194681611601565b9050919050565b6000602082019050818103600083015261196681611667565b9050919050565b60006020820190508181036000830152611986816116cd565b9050919050565b600060208201905081810360008301526119a681611733565b9050919050565b600060208201905081810360008301526119c6816117b3565b9050919050565b60006020820190506119e260008301846117f3565b92915050565b600081905092915050565b600082825260208201905092915050565b6000611a0f82611b57565b9150611a1a83611b57565b9250827fffffffffffffffffffffffffffffffffffffffffffffffffffffffffffffffff03821115611a4f57611a4e611b61565b5b828201905092915050565b6000611a6582611b57565b9150611a7083611b57565b925082611a8057611a7f611b90565b5b828204905092915050565b6000611a9682611b57565b9150611aa183611b57565b9250817fffffffffffffffffffffffffffffffffffffffffffffffffffffffffffffffff0483118215151615611ada57611ad9611b61565b5b828202905092915050565b6000611af082611b57565b9150611afb83611b57565b925082821015611b0e57611b0d611b61565b5b828203905092915050565b6000611b2482611b37565b9050919050565b60008115159050919050565b600073ffffffffffffffffffffffffffffffffffffffff82169050919050565b6000819050919050565b7f4e487b7100000000000000000000000000000000000000000000000000000000600052601160045260246000fd5b7f4e487b7100000000000000000000000000000000000000000000000000000000600052601260045260246000fd5b611bc881611b19565b8114611bd357600080fd5b50565b611bdf81611b57565b8114611bea57600080fd5b5056fea2646970667358221220c2474247583b280f2c1898c1ebf5bc94b103c3bd3a0385f4a9269f4dfda2eced64736f6c63430008000033",
  "immutableReferences": {},
  "source": "// SPDX-License-Identifier: MIT\r\npragma solidity ^0.8.0;\r\n\r\ncontract LendingPlatform {\r\n\r\n    // State Variables\r\n    mapping(address => uint256) public balances;          // User collateral balances\r\n    mapping(address => uint256) public borrowedAmounts;   // User borrowed amounts\r\n    mapping(address => uint256) public loanStartTimes;    // Loan start times for interest calculation\r\n    mapping(address => uint256) public loanDueDates;      // Loan due dates\r\n\r\n    uint256 public totalFundsAvailable;                   // Total funds available for borrowing\r\n    uint256 public constant LTV = 75;                     // Loan-to-Value ratio (e.g., 75%)\r\n    uint256 public annualInterestRate = 5;                // 5% annual interest rate\r\n    uint256 public latePenaltyRate = 2;                   // 2% penalty for overdue loans\r\n    uint256 public platformFee = 1;                       // 1% service charge\r\n    uint256 public insuranceFund;                         // Insurance fund pool\r\n\r\n    // Address of the contract owner (deployer)\r\n    address public owner;\r\n\r\n    // Events for transparency\r\n    event Deposit(address indexed user, uint256 amount);\r\n    event Withdraw(address indexed user, uint256 amount);\r\n    event Borrow(address indexed user, uint256 amount);\r\n    event Repay(address indexed user, uint256 amount);\r\n\r\n    // Constructor to set the owner\r\n    constructor() {\r\n        owner = msg.sender; // Set the deployer as the owner\r\n    }\r\n\r\n    // Modifier to restrict access to only the owner\r\n    modifier onlyOwner() {\r\n        require(msg.sender == owner, \"Not the contract owner\");\r\n        _;\r\n    }\r\n\r\n    // Deposit funds into the contract (collateral)\r\n    function deposit() public payable {\r\n        require(msg.value > 0, \"Deposit amount must be greater than 0\");\r\n\r\n        uint256 fee = msg.value * platformFee / 100;\r\n        uint256 netAmount = msg.value - fee;\r\n\r\n        balances[msg.sender] = balances[msg.sender] + netAmount;\r\n        totalFundsAvailable = totalFundsAvailable + netAmount;\r\n        insuranceFund = insuranceFund + (fee / 2); // 50% of fees go to the insurance fund\r\n\r\n        emit Deposit(msg.sender, netAmount);\r\n    }\r\n\r\n    // Withdraw collateral (only if user has no outstanding loans)\r\n    function withdraw(uint256 amount) public {\r\n        require(borrowedAmounts[msg.sender] == 0, \"Outstanding loan exists, cannot withdraw collateral\");\r\n        require(balances[msg.sender] >= amount, \"Insufficient balance to withdraw\");\r\n\r\n        balances[msg.sender] = balances[msg.sender] - amount;\r\n        totalFundsAvailable = totalFundsAvailable - amount;\r\n\r\n        (bool success, ) = payable(msg.sender).call{value: amount}(\"\");\r\n        require(success, \"Transfer failed\");\r\n\r\n        emit Withdraw(msg.sender, amount);\r\n    }\r\n\r\n    // Borrow funds from the contract\r\n    function borrow(uint256 amount) public {\r\n        require(amount > 0, \"Amount must be greater than 0\");\r\n        uint256 maxBorrowable = balances[msg.sender] * LTV / 100; // Calculate max borrowable based on LTV\r\n        uint256 currentDebt = borrowedAmounts[msg.sender];\r\n\r\n        require(currentDebt + amount <= maxBorrowable, \"Exceeds borrow limit based on collateral\");\r\n        require(amount <= totalFundsAvailable, \"Not enough funds available in the contract\");\r\n        require(address(this).balance >= amount, \"Contract does not have enough liquidity\");\r\n\r\n        borrowedAmounts[msg.sender] = borrowedAmounts[msg.sender] + amount;\r\n        loanStartTimes[msg.sender] = block.timestamp;\r\n        loanDueDates[msg.sender] = block.timestamp + 30 days; // Loan repayment due in 30 days\r\n        totalFundsAvailable = totalFundsAvailable - amount;\r\n\r\n        (bool success, ) = payable(msg.sender).call{value: amount}(\"\");\r\n        require(success, \"Transfer failed\");\r\n\r\n        emit Borrow(msg.sender, amount);\r\n    }\r\n\r\n    // Calculate interest based on loan duration\r\n    function calculateInterest(address user) public view returns (uint256) {\r\n        uint256 debt = borrowedAmounts[user];\r\n        uint256 duration = block.timestamp - loanStartTimes[user];\r\n        uint256 interest = debt * annualInterestRate * duration / 365 days / 100;\r\n        return interest;\r\n    }\r\n\r\n    // Repay borrowed funds partially or fully\r\n    function repay() public payable {\r\n        uint256 amount = msg.value; // Repayment amount is the value sent with the transaction\r\n        uint256 interest = calculateInterest(msg.sender);\r\n        uint256 penalty = 0;\r\n\r\n        // Apply penalty if repayment is overdue\r\n        if (block.timestamp > loanDueDates[msg.sender]) {\r\n            penalty = borrowedAmounts[msg.sender] * latePenaltyRate / 100;\r\n        }\r\n\r\n        uint256 totalOwed = borrowedAmounts[msg.sender] + interest + penalty;\r\n        require(amount > 0, \"Repayment amount must be greater than 0\");\r\n        require(totalOwed > 0, \"No outstanding loan to repay\");\r\n        require(amount <= totalOwed, \"Cannot repay more than the owed amount\");\r\n\r\n        borrowedAmounts[msg.sender] = totalOwed - amount;\r\n        totalFundsAvailable = totalFundsAvailable + amount;\r\n\r\n        emit Repay(msg.sender, amount);\r\n    }\r\n\r\n    // View function to check the contract's ETH balance\r\n    function contractBalance() public view returns (uint256) {\r\n        return address(this).balance;\r\n    }\r\n\r\n    // View function to check the user's borrowing capacity\r\n    function borrowingCapacity(address user) public view returns (uint256) {\r\n        uint256 maxBorrowable = balances[user] * LTV / 100;\r\n        uint256 debt = borrowedAmounts[user];\r\n        return maxBorrowable > debt ? maxBorrowable - debt : 0;\r\n    }\r\n\r\n    // Get user eligibility for withdrawal\r\n    function canWithdraw(address user) public view returns (bool) {\r\n        return borrowedAmounts[user] == 0 && balances[user] > 0;\r\n    }\r\n\r\n    // Admin function to update platform parameters\r\n    function updateParameters(uint256 _interestRate, uint256 _penaltyRate, uint256 _platformFee) public onlyOwner {\r\n        annualInterestRate = _interestRate;\r\n        latePenaltyRate = _penaltyRate;\r\n        platformFee = _platformFee;\r\n    }\r\n}\r\n",
  "sourcePath": "C:\\Users\\HP\\Desktop\\test-app\\contracts\\LendingPlatform.sol",
  "compiler": {
    "name": "solc",
    "version": "0.8.0+commit.c7dfd78e.Emscripten.clang"
  },
  "schemaVersion": "3.4.16",
  "updatedAt": "2024-12-22T09:59:36.313Z",
  "networkType": "ethereum",
  "devdoc": {
    "kind": "dev",
    "methods": {},
    "version": 1
  },
  "userdoc": {
    "kind": "user",
    "methods": {},
    "version": 1
  }
}