{
  "contractName": "LendingPlatform",
  "abi": [
    {
      "anonymous": false,
      "inputs": [
        {
          "indexed": true,
          "internalType": "address",
          "name": "user",
          "type": "address"
        },
        {
          "indexed": false,
          "internalType": "uint256",
          "name": "amount",
          "type": "uint256"
        }
      ],
      "name": "Borrow",
      "type": "event"
    },
    {
      "anonymous": false,
      "inputs": [
        {
          "indexed": true,
          "internalType": "address",
          "name": "user",
          "type": "address"
        },
        {
          "indexed": false,
          "internalType": "uint256",
          "name": "amount",
          "type": "uint256"
        }
      ],
      "name": "Deposit",
      "type": "event"
    },
    {
      "anonymous": false,
      "inputs": [
        {
          "indexed": true,
          "internalType": "address",
          "name": "user",
          "type": "address"
        },
        {
          "indexed": false,
          "internalType": "uint256",
          "name": "amount",
          "type": "uint256"
        }
      ],
      "name": "Repay",
      "type": "event"
    },
    {
      "anonymous": false,
      "inputs": [
        {
          "indexed": true,
          "internalType": "address",
          "name": "user",
          "type": "address"
        },
        {
          "indexed": false,
          "internalType": "uint256",
          "name": "amount",
          "type": "uint256"
        }
      ],
      "name": "Withdraw",
      "type": "event"
    },
    {
      "inputs": [],
      "name": "LTV",
      "outputs": [
        {
          "internalType": "uint256",
          "name": "",
          "type": "uint256"
        }
      ],
      "stateMutability": "view",
      "type": "function",
      "constant": true
    },
    {
      "inputs": [
        {
          "internalType": "address",
          "name": "",
          "type": "address"
        }
      ],
      "name": "balances",
      "outputs": [
        {
          "internalType": "uint256",
          "name": "",
          "type": "uint256"
        }
      ],
      "stateMutability": "view",
      "type": "function",
      "constant": true
    },
    {
      "inputs": [
        {
          "internalType": "address",
          "name": "",
          "type": "address"
        }
      ],
      "name": "borrowedAmounts",
      "outputs": [
        {
          "internalType": "uint256",
          "name": "",
          "type": "uint256"
        }
      ],
      "stateMutability": "view",
      "type": "function",
      "constant": true
    },
    {
      "inputs": [],
      "name": "totalFundsAvailable",
      "outputs": [
        {
          "internalType": "uint256",
          "name": "",
          "type": "uint256"
        }
      ],
      "stateMutability": "view",
      "type": "function",
      "constant": true
    },
    {
      "inputs": [],
      "name": "deposit",
      "outputs": [],
      "stateMutability": "payable",
      "type": "function",
      "payable": true
    },
    {
      "inputs": [
        {
          "internalType": "uint256",
          "name": "amount",
          "type": "uint256"
        }
      ],
      "name": "withdraw",
      "outputs": [],
      "stateMutability": "nonpayable",
      "type": "function"
    },
    {
      "inputs": [
        {
          "internalType": "uint256",
          "name": "amount",
          "type": "uint256"
        }
      ],
      "name": "borrow",
      "outputs": [],
      "stateMutability": "nonpayable",
      "type": "function"
    },
    {
      "inputs": [],
      "name": "repay",
      "outputs": [],
      "stateMutability": "payable",
      "type": "function",
      "payable": true
    },
    {
      "inputs": [],
      "name": "contractBalance",
      "outputs": [
        {
          "internalType": "uint256",
          "name": "",
          "type": "uint256"
        }
      ],
      "stateMutability": "view",
      "type": "function",
      "constant": true
    },
    {
      "inputs": [
        {
          "internalType": "address",
          "name": "user",
          "type": "address"
        }
      ],
      "name": "borrowingCapacity",
      "outputs": [
        {
          "internalType": "uint256",
          "name": "",
          "type": "uint256"
        }
      ],
      "stateMutability": "view",
      "type": "function",
      "constant": true
    },
    {
      "inputs": [
        {
          "internalType": "address",
          "name": "user",
          "type": "address"
        }
      ],
      "name": "canWithdraw",
      "outputs": [
        {
          "internalType": "bool",
          "name": "",
          "type": "bool"
        }
      ],
      "stateMutability": "view",
      "type": "function",
      "constant": true
    }
  ],
  "bytecode": "0x608060405234801561001057600080fd5b506114f2806100206000396000f3fe60806040526004361061009c5760003560e01c806362965d8e1161006457806362965d8e1461018b5780638354bdbf146101b65780638b7afe2e146101f3578063ac1f7ca11461021e578063c5ebeaec14610249578063d0e30db0146102725761009c565b806319262d30146100a157806327e235e3146100de5780632e1a7d4d1461011b578063402d888314610144578063478230f71461014e575b600080fd5b3480156100ad57600080fd5b506100c860048036038101906100c39190610cb8565b61027c565b6040516100d59190611121565b60405180910390f35b3480156100ea57600080fd5b5061010560048036038101906101009190610cb8565b610311565b604051610112919061129c565b60405180910390f35b34801561012757600080fd5b50610142600480360381019061013d9190610ce1565b610329565b005b61014c6105a4565b005b34801561015a57600080fd5b5061017560048036038101906101709190610cb8565b610777565b604051610182919061129c565b60405180910390f35b34801561019757600080fd5b506101a061078f565b6040516101ad919061129c565b60405180910390f35b3480156101c257600080fd5b506101dd60048036038101906101d89190610cb8565b610794565b6040516101ea919061129c565b60405180910390f35b3480156101ff57600080fd5b50610208610858565b604051610215919061129c565b60405180910390f35b34801561022a57600080fd5b50610233610860565b604051610240919061129c565b60405180910390f35b34801561025557600080fd5b50610270600480360381019061026b9190610ce1565b610866565b005b61027a610b8d565b005b600080600160008473ffffffffffffffffffffffffffffffffffffffff1673ffffffffffffffffffffffffffffffffffffffff1681526020019081526020016000205414801561030a575060008060008473ffffffffffffffffffffffffffffffffffffffff1673ffffffffffffffffffffffffffffffffffffffff16815260200190815260200160002054115b9050919050565b60006020528060005260406000206000915090505481565b60008060003373ffffffffffffffffffffffffffffffffffffffff1673ffffffffffffffffffffffffffffffffffffffff1681526020019081526020016000205490506000600160003373ffffffffffffffffffffffffffffffffffffffff1673ffffffffffffffffffffffffffffffffffffffff168152602001908152602001600020549050600081146103f3576040517f08c379a00000000000000000000000000000000000000000000000000000000081526004016103ea906111bc565b60405180910390fd5b82821015610436576040517f08c379a000000000000000000000000000000000000000000000000000000000815260040161042d906111dc565b60405180910390fd5b826000803373ffffffffffffffffffffffffffffffffffffffff1673ffffffffffffffffffffffffffffffffffffffff168152602001908152602001600020600082825461048491906113b4565b92505081905550826002600082825461049d91906113b4565b9250508190555060003373ffffffffffffffffffffffffffffffffffffffff16846040516104ca9061110c565b60006040518083038185875af1925050503d8060008114610507576040519150601f19603f3d011682016040523d82523d6000602084013e61050c565b606091505b5050905080610550576040517f08c379a00000000000000000000000000000000000000000000000000000000081526004016105479061117c565b60405180910390fd5b3373ffffffffffffffffffffffffffffffffffffffff167f884edad9ce6fa2440d8a54cc123490eb96d2768479d49ff9c7366125a942436485604051610596919061129c565b60405180910390a250505050565b60003490506000600160003373ffffffffffffffffffffffffffffffffffffffff1673ffffffffffffffffffffffffffffffffffffffff16815260200190815260200160002054905060008211610630576040517f08c379a00000000000000000000000000000000000000000000000000000000081526004016106279061125c565b60405180910390fd5b60008111610673576040517f08c379a000000000000000000000000000000000000000000000000000000000815260040161066a9061115c565b60405180910390fd5b808211156106b6576040517f08c379a00000000000000000000000000000000000000000000000000000000081526004016106ad9061121c565b60405180910390fd5b81600160003373ffffffffffffffffffffffffffffffffffffffff1673ffffffffffffffffffffffffffffffffffffffff168152602001908152602001600020600082825461070591906113b4565b92505081905550816002600082825461071e91906112d3565b925050819055503373ffffffffffffffffffffffffffffffffffffffff167f5c16de4f8b59bd9caf0f49a545f25819a895ed223294290b408242e72a5942318360405161076b919061129c565b60405180910390a25050565b60016020528060005260406000206000915090505481565b604b81565b6000806064604b6000808673ffffffffffffffffffffffffffffffffffffffff1673ffffffffffffffffffffffffffffffffffffffff168152602001908152602001600020546107e4919061135a565b6107ee9190611329565b90506000600160008573ffffffffffffffffffffffffffffffffffffffff1673ffffffffffffffffffffffffffffffffffffffff16815260200190815260200160002054905080821161084257600061084f565b808261084e91906113b4565b5b92505050919050565b600047905090565b60025481565b600081116108a9576040517f08c379a00000000000000000000000000000000000000000000000000000000081526004016108a09061119c565b60405180910390fd5b60006064604b6000803373ffffffffffffffffffffffffffffffffffffffff1673ffffffffffffffffffffffffffffffffffffffff168152602001908152602001600020546108f8919061135a565b6109029190611329565b90506000600160003373ffffffffffffffffffffffffffffffffffffffff1673ffffffffffffffffffffffffffffffffffffffff16815260200190815260200160002054905081838261095591906112d3565b1115610996576040517f08c379a000000000000000000000000000000000000000000000000000000000815260040161098d9061127c565b60405180910390fd5b6002548311156109db576040517f08c379a00000000000000000000000000000000000000000000000000000000081526004016109d29061123c565b60405180910390fd5b82471015610a1e576040517f08c379a0000000000000000000000000000000000000000000000000000000008152600401610a15906111fc565b60405180910390fd5b82600160003373ffffffffffffffffffffffffffffffffffffffff1673ffffffffffffffffffffffffffffffffffffffff1681526020019081526020016000206000828254610a6d91906112d3565b925050819055508260026000828254610a8691906113b4565b9250508190555060003373ffffffffffffffffffffffffffffffffffffffff1684604051610ab39061110c565b60006040518083038185875af1925050503d8060008114610af0576040519150601f19603f3d011682016040523d82523d6000602084013e610af5565b606091505b5050905080610b39576040517f08c379a0000000000000000000000000000000000000000000000000000000008152600401610b309061117c565b60405180910390fd5b3373ffffffffffffffffffffffffffffffffffffffff167fcbc04eca7e9da35cb1393a6135a199ca52e450d5e9251cbd99f7847d33a3675085604051610b7f919061129c565b60405180910390a250505050565b60003411610bd0576040517f08c379a0000000000000000000000000000000000000000000000000000000008152600401610bc79061113c565b60405180910390fd5b346000803373ffffffffffffffffffffffffffffffffffffffff1673ffffffffffffffffffffffffffffffffffffffff1681526020019081526020016000206000828254610c1e91906112d3565b925050819055503460026000828254610c3791906112d3565b925050819055503373ffffffffffffffffffffffffffffffffffffffff167fe1fffcc4923d04b559f4d29a8bfc6cda04eb5b0d3c460751c2402c5c5cc9109c34604051610c84919061129c565b60405180910390a2565b600081359050610c9d8161148e565b92915050565b600081359050610cb2816114a5565b92915050565b600060208284031215610cca57600080fd5b6000610cd884828501610c8e565b91505092915050565b600060208284031215610cf357600080fd5b6000610d0184828501610ca3565b91505092915050565b610d13816113fa565b82525050565b6000610d266025836112c2565b91507f4465706f73697420616d6f756e74206d7573742062652067726561746572207460008301527f68616e20300000000000000000000000000000000000000000000000000000006020830152604082019050919050565b6000610d8c601c836112c2565b91507f4e6f206f75747374616e64696e67206c6f616e20746f207265706179000000006000830152602082019050919050565b6000610dcc600f836112c2565b91507f5472616e73666572206661696c656400000000000000000000000000000000006000830152602082019050919050565b6000610e0c601d836112c2565b91507f416d6f756e74206d7573742062652067726561746572207468616e20300000006000830152602082019050919050565b6000610e4c6033836112c2565b91507f4f75747374616e64696e67206c6f616e206578697374732c2063616e6e6f742060008301527f776974686472617720636f6c6c61746572616c000000000000000000000000006020830152604082019050919050565b6000610eb26020836112c2565b91507f496e73756666696369656e742062616c616e636520746f2077697468647261776000830152602082019050919050565b6000610ef26027836112c2565b91507f436f6e747261637420646f6573206e6f74206861766520656e6f756768206c6960008301527f71756964697479000000000000000000000000000000000000000000000000006020830152604082019050919050565b6000610f586026836112c2565b91507f43616e6e6f74207265706179206d6f7265207468616e20746865206f7765642060008301527f616d6f756e7400000000000000000000000000000000000000000000000000006020830152604082019050919050565b6000610fbe602a836112c2565b91507f4e6f7420656e6f7567682066756e647320617661696c61626c6520696e20746860008301527f6520636f6e7472616374000000000000000000000000000000000000000000006020830152604082019050919050565b60006110246027836112c2565b91507f52657061796d656e7420616d6f756e74206d757374206265206772656174657260008301527f207468616e2030000000000000000000000000000000000000000000000000006020830152604082019050919050565b600061108a6028836112c2565b91507f4578636565647320626f72726f77206c696d6974206261736564206f6e20636f60008301527f6c6c61746572616c0000000000000000000000000000000000000000000000006020830152604082019050919050565b60006110f06000836112b7565b9150600082019050919050565b61110681611426565b82525050565b6000611117826110e3565b9150819050919050565b60006020820190506111366000830184610d0a565b92915050565b6000602082019050818103600083015261115581610d19565b9050919050565b6000602082019050818103600083015261117581610d7f565b9050919050565b6000602082019050818103600083015261119581610dbf565b9050919050565b600060208201905081810360008301526111b581610dff565b9050919050565b600060208201905081810360008301526111d581610e3f565b9050919050565b600060208201905081810360008301526111f581610ea5565b9050919050565b6000602082019050818103600083015261121581610ee5565b9050919050565b6000602082019050818103600083015261123581610f4b565b9050919050565b6000602082019050818103600083015261125581610fb1565b9050919050565b6000602082019050818103600083015261127581611017565b9050919050565b600060208201905081810360008301526112958161107d565b9050919050565b60006020820190506112b160008301846110fd565b92915050565b600081905092915050565b600082825260208201905092915050565b60006112de82611426565b91506112e983611426565b9250827fffffffffffffffffffffffffffffffffffffffffffffffffffffffffffffffff0382111561131e5761131d611430565b5b828201905092915050565b600061133482611426565b915061133f83611426565b92508261134f5761134e61145f565b5b828204905092915050565b600061136582611426565b915061137083611426565b9250817fffffffffffffffffffffffffffffffffffffffffffffffffffffffffffffffff04831182151516156113a9576113a8611430565b5b828202905092915050565b60006113bf82611426565b91506113ca83611426565b9250828210156113dd576113dc611430565b5b828203905092915050565b60006113f382611406565b9050919050565b60008115159050919050565b600073ffffffffffffffffffffffffffffffffffffffff82169050919050565b6000819050919050565b7f4e487b7100000000000000000000000000000000000000000000000000000000600052601160045260246000fd5b7f4e487b7100000000000000000000000000000000000000000000000000000000600052601260045260246000fd5b611497816113e8565b81146114a257600080fd5b50565b6114ae81611426565b81146114b957600080fd5b5056fea2646970667358221220f7e0a96f04d41c4dd7826cd9acf9b0e0cb759590e508ecfbe87b02d79966fb8064736f6c63430008000033",
  "immutableReferences": {},
  "source": "// SPDX-License-Identifier: MIT\r\npragma solidity ^0.8.0;\r\n\r\ncontract LendingPlatform {\r\n    // State Variables\r\n    mapping(address => uint) public balances;           // Tracks user deposits (collateral balance)\r\n    mapping(address => uint) public borrowedAmounts;    // Tracks borrowed amounts per user\r\n    uint public totalFundsAvailable;                    // Total funds available for borrowing\r\n    uint public constant LTV = 75;                      // Loan-to-Value ratio (e.g., 75%)\r\n\r\n    // Events for transparency\r\n    event Deposit(address indexed user, uint amount);\r\n    event Withdraw(address indexed user, uint amount);\r\n    event Borrow(address indexed user, uint amount);\r\n    event Repay(address indexed user, uint amount);\r\n\r\n    // Deposit funds into the contract (collateral)\r\n    function deposit() public payable {\r\n        require(msg.value > 0, \"Deposit amount must be greater than 0\");\r\n        balances[msg.sender] += msg.value;\r\n        totalFundsAvailable += msg.value;\r\n        emit Deposit(msg.sender, msg.value);\r\n    }\r\n\r\n    // Withdraw collateral (only if user has no outstanding loans)\r\n    function withdraw(uint256 amount) public {\r\n        uint depositAmount = balances[msg.sender];\r\n        uint debt = borrowedAmounts[msg.sender];\r\n\r\n        require(debt == 0, \"Outstanding loan exists, cannot withdraw collateral\");\r\n        require(depositAmount >= amount, \"Insufficient balance to withdraw\");\r\n\r\n        balances[msg.sender] -= amount;\r\n        totalFundsAvailable -= amount;\r\n\r\n        (bool success, ) = payable(msg.sender).call{value: amount}(\"\");\r\n        require(success, \"Transfer failed\");\r\n\r\n        emit Withdraw(msg.sender, amount);\r\n    }\r\n\r\n    // Borrow funds from the contract\r\n    function borrow(uint256 amount) public {\r\n        require(amount > 0, \"Amount must be greater than 0\");\r\n        uint maxBorrowable = (balances[msg.sender] * LTV) / 100; // Calculate max borrowable based on LTV\r\n        uint currentDebt = borrowedAmounts[msg.sender];\r\n\r\n        require(currentDebt + amount <= maxBorrowable, \"Exceeds borrow limit based on collateral\");\r\n        require(amount <= totalFundsAvailable, \"Not enough funds available in the contract\");\r\n        require(address(this).balance >= amount, \"Contract does not have enough liquidity\");\r\n\r\n        borrowedAmounts[msg.sender] += amount;\r\n        totalFundsAvailable -= amount;\r\n\r\n        (bool success, ) = payable(msg.sender).call{value: amount}(\"\");\r\n        require(success, \"Transfer failed\");\r\n\r\n        emit Borrow(msg.sender, amount);\r\n    }\r\n\r\n    // Repay borrowed funds partially or fully\r\n    function repay() public payable {\r\n        uint amount = msg.value; // Repayment amount is the value sent with the transaction\r\n        uint amountOwed = borrowedAmounts[msg.sender];\r\n\r\n        require(amount > 0, \"Repayment amount must be greater than 0\");\r\n        require(amountOwed > 0, \"No outstanding loan to repay\");\r\n        require(amount <= amountOwed, \"Cannot repay more than the owed amount\");\r\n\r\n        borrowedAmounts[msg.sender] -= amount;\r\n        totalFundsAvailable += amount; // Add repayment to available funds\r\n\r\n        emit Repay(msg.sender, amount);\r\n    }\r\n\r\n    // View function to check the contract's ETH balance\r\n    function contractBalance() public view returns (uint256) {\r\n        return address(this).balance;\r\n    }\r\n\r\n    // View function to check the user's borrowing capacity\r\n    function borrowingCapacity(address user) public view returns (uint256) {\r\n        uint maxBorrowable = (balances[user] * LTV) / 100;\r\n        uint debt = borrowedAmounts[user];\r\n        return maxBorrowable > debt ? maxBorrowable - debt : 0;\r\n    }\r\n    // Get user eligibility for withdrawal\r\n    function canWithdraw(address user) public view returns (bool) {\r\n        return borrowedAmounts[user] == 0 && balances[user] > 0;\r\n    }\r\n}\r\n",
  "sourcePath": "C:\\Users\\HP\\Desktop\\test-app\\contracts\\LendingPlatform.sol",
  "compiler": {
    "name": "solc",
    "version": "0.8.0+commit.c7dfd78e.Emscripten.clang"
  },
  "schemaVersion": "3.4.16",
  "updatedAt": "2024-12-22T09:23:10.898Z",
  "networkType": "ethereum",
  "devdoc": {
    "kind": "dev",
    "methods": {},
    "version": 1
  },
  "userdoc": {
    "kind": "user",
    "methods": {},
    "version": 1
  }
}