{
  "contractName": "LendingPlatform",
  "abi": [
    {
      "inputs": [
        {
          "internalType": "address",
          "name": "",
          "type": "address"
        }
      ],
      "name": "balances",
      "outputs": [
        {
          "internalType": "uint256",
          "name": "",
          "type": "uint256"
        }
      ],
      "stateMutability": "view",
      "type": "function",
      "constant": true
    },
    {
      "inputs": [
        {
          "internalType": "address",
          "name": "",
          "type": "address"
        }
      ],
      "name": "borrowTimestamps",
      "outputs": [
        {
          "internalType": "uint256",
          "name": "",
          "type": "uint256"
        }
      ],
      "stateMutability": "view",
      "type": "function",
      "constant": true
    },
    {
      "inputs": [
        {
          "internalType": "address",
          "name": "",
          "type": "address"
        }
      ],
      "name": "borrowedAmounts",
      "outputs": [
        {
          "internalType": "uint256",
          "name": "",
          "type": "uint256"
        }
      ],
      "stateMutability": "view",
      "type": "function",
      "constant": true
    },
    {
      "inputs": [
        {
          "internalType": "address",
          "name": "",
          "type": "address"
        }
      ],
      "name": "depositTimestamps",
      "outputs": [
        {
          "internalType": "uint256",
          "name": "",
          "type": "uint256"
        }
      ],
      "stateMutability": "view",
      "type": "function",
      "constant": true
    },
    {
      "inputs": [],
      "name": "interestRate",
      "outputs": [
        {
          "internalType": "uint256",
          "name": "",
          "type": "uint256"
        }
      ],
      "stateMutability": "view",
      "type": "function",
      "constant": true
    },
    {
      "inputs": [],
      "name": "totalFundsAvailable",
      "outputs": [
        {
          "internalType": "uint256",
          "name": "",
          "type": "uint256"
        }
      ],
      "stateMutability": "view",
      "type": "function",
      "constant": true
    },
    {
      "inputs": [],
      "name": "deposit",
      "outputs": [],
      "stateMutability": "payable",
      "type": "function",
      "payable": true
    },
    {
      "inputs": [
        {
          "internalType": "uint256",
          "name": "amount",
          "type": "uint256"
        }
      ],
      "name": "withdraw",
      "outputs": [],
      "stateMutability": "nonpayable",
      "type": "function"
    },
    {
      "inputs": [
        {
          "internalType": "uint256",
          "name": "amount",
          "type": "uint256"
        }
      ],
      "name": "borrow",
      "outputs": [],
      "stateMutability": "nonpayable",
      "type": "function"
    },
    {
      "inputs": [],
      "name": "repay",
      "outputs": [],
      "stateMutability": "payable",
      "type": "function",
      "payable": true
    },
    {
      "inputs": [],
      "name": "contractBalance",
      "outputs": [
        {
          "internalType": "uint256",
          "name": "",
          "type": "uint256"
        }
      ],
      "stateMutability": "view",
      "type": "function",
      "constant": true
    }
  ],
  "bytecode": "0x6080604052600160045534801561001557600080fd5b50610f43806100256000396000f3fe60806040526004361061009c5760003560e01c80637c3a00fd116100645780637c3a00fd1461018b5780638b7afe2e146101b6578063ac1f7ca1146101e1578063c5ebeaec1461020c578063d0e30db014610235578063d184c78b1461023f5761009c565b8063240be944146100a157806327e235e3146100de5780632e1a7d4d1461011b578063402d888314610144578063478230f71461014e575b600080fd5b3480156100ad57600080fd5b506100c860048036038101906100c391906109f1565b61027c565b6040516100d59190610d04565b60405180910390f35b3480156100ea57600080fd5b50610105600480360381019061010091906109f1565b610294565b6040516101129190610d04565b60405180910390f35b34801561012757600080fd5b50610142600480360381019061013d9190610a1a565b6102ac565b005b61014c610484565b005b34801561015a57600080fd5b50610175600480360381019061017091906109f1565b6106d4565b6040516101829190610d04565b60405180910390f35b34801561019757600080fd5b506101a06106ec565b6040516101ad9190610d04565b60405180910390f35b3480156101c257600080fd5b506101cb6106f2565b6040516101d89190610d04565b60405180910390f35b3480156101ed57600080fd5b506101f66106fa565b6040516102039190610d04565b60405180910390f35b34801561021857600080fd5b50610233600480360381019061022e9190610a1a565b610700565b005b61023d6108fb565b005b34801561024b57600080fd5b50610266600480360381019061026191906109f1565b6109af565b6040516102739190610d04565b60405180910390f35b60016020528060005260406000206000915090505481565b60006020528060005260406000206000915090505481565b60008060003373ffffffffffffffffffffffffffffffffffffffff1673ffffffffffffffffffffffffffffffffffffffff16815260200190815260200160002054905081811015610332576040517f08c379a000000000000000000000000000000000000000000000000000000000815260040161032990610c84565b60405180910390fd5b6000600160003373ffffffffffffffffffffffffffffffffffffffff1673ffffffffffffffffffffffffffffffffffffffff16815260200190815260200160002054905060006201518082426103889190610e11565b6103929190610d86565b90506000606482600454866103a79190610db7565b6103b19190610db7565b6103bb9190610d86565b9050846000803373ffffffffffffffffffffffffffffffffffffffff1673ffffffffffffffffffffffffffffffffffffffff168152602001908152602001600020600082825461040b9190610e11565b9250508190555084600560008282546104249190610e11565b925050819055503373ffffffffffffffffffffffffffffffffffffffff166108fc82876104519190610d30565b9081150290604051600060405180830381858888f1935050505015801561047c573d6000803e3d6000fd5b505050505050565b6000600260003373ffffffffffffffffffffffffffffffffffffffff1673ffffffffffffffffffffffffffffffffffffffff1681526020019081526020016000205490506000811161050b576040517f08c379a000000000000000000000000000000000000000000000000000000000815260040161050290610c44565b60405180910390fd5b600062015180600360003373ffffffffffffffffffffffffffffffffffffffff1673ffffffffffffffffffffffffffffffffffffffff168152602001908152602001600020544261055c9190610e11565b6105669190610d86565b905060006064826004548561057b9190610db7565b6105859190610db7565b61058f9190610d86565b90506000818461059f9190610d30565b9050803410156105e4576040517f08c379a00000000000000000000000000000000000000000000000000000000081526004016105db90610ce4565b60405180910390fd5b6000600260003373ffffffffffffffffffffffffffffffffffffffff1673ffffffffffffffffffffffffffffffffffffffff168152602001908152602001600020819055506000600360003373ffffffffffffffffffffffffffffffffffffffff1673ffffffffffffffffffffffffffffffffffffffff1681526020019081526020016000208190555034600560008282546106809190610d30565b925050819055503073ffffffffffffffffffffffffffffffffffffffff166108fc349081150290604051600060405180830381858888f193505050501580156106cd573d6000803e3d6000fd5b5050505050565b60026020528060005260406000206000915090505481565b60045481565b600047905090565b60055481565b60008111610743576040517f08c379a000000000000000000000000000000000000000000000000000000000815260040161073a90610c64565b60405180910390fd5b600554811115610788576040517f08c379a000000000000000000000000000000000000000000000000000000000815260040161077f90610cc4565b60405180910390fd5b6000600260003373ffffffffffffffffffffffffffffffffffffffff1673ffffffffffffffffffffffffffffffffffffffff1681526020019081526020016000205490506000811461080f576040517f08c379a000000000000000000000000000000000000000000000000000000000815260040161080690610ca4565b60405180910390fd5b81600260003373ffffffffffffffffffffffffffffffffffffffff1673ffffffffffffffffffffffffffffffffffffffff1681526020019081526020016000208190555042600360003373ffffffffffffffffffffffffffffffffffffffff1673ffffffffffffffffffffffffffffffffffffffff1681526020019081526020016000208190555081600560008282546108a99190610e11565b925050819055503373ffffffffffffffffffffffffffffffffffffffff166108fc839081150290604051600060405180830381858888f193505050501580156108f6573d6000803e3d6000fd5b505050565b346000803373ffffffffffffffffffffffffffffffffffffffff1673ffffffffffffffffffffffffffffffffffffffff16815260200190815260200160002060008282546109499190610d30565b9250508190555042600160003373ffffffffffffffffffffffffffffffffffffffff1673ffffffffffffffffffffffffffffffffffffffff1681526020019081526020016000208190555034600560008282546109a69190610d30565b92505081905550565b60036020528060005260406000206000915090505481565b6000813590506109d681610edf565b92915050565b6000813590506109eb81610ef6565b92915050565b600060208284031215610a0357600080fd5b6000610a11848285016109c7565b91505092915050565b600060208284031215610a2c57600080fd5b6000610a3a848285016109dc565b91505092915050565b6000610a50601c83610d1f565b91507f4e6f206f75747374616e64696e67206c6f616e20746f207265706179000000006000830152602082019050919050565b6000610a90601d83610d1f565b91507f416d6f756e74206d7573742062652067726561746572207468616e20300000006000830152602082019050919050565b6000610ad0602083610d1f565b91507f496e73756666696369656e742062616c616e636520746f2077697468647261776000830152602082019050919050565b6000610b10602483610d1f565b91507f596f7520616c7265616479206861766520616e206f75747374616e64696e672060008301527f6c6f616e000000000000000000000000000000000000000000000000000000006020830152604082019050919050565b6000610b76602a83610d1f565b91507f4e6f7420656e6f7567682066756e647320617661696c61626c6520696e20746860008301527f6520636f6e7472616374000000000000000000000000000000000000000000006020830152604082019050919050565b6000610bdc602483610d1f565b91507f496e73756666696369656e742066756e647320746f207265706179207468652060008301527f6c6f616e000000000000000000000000000000000000000000000000000000006020830152604082019050919050565b610c3e81610e77565b82525050565b60006020820190508181036000830152610c5d81610a43565b9050919050565b60006020820190508181036000830152610c7d81610a83565b9050919050565b60006020820190508181036000830152610c9d81610ac3565b9050919050565b60006020820190508181036000830152610cbd81610b03565b9050919050565b60006020820190508181036000830152610cdd81610b69565b9050919050565b60006020820190508181036000830152610cfd81610bcf565b9050919050565b6000602082019050610d196000830184610c35565b92915050565b600082825260208201905092915050565b6000610d3b82610e77565b9150610d4683610e77565b9250827fffffffffffffffffffffffffffffffffffffffffffffffffffffffffffffffff03821115610d7b57610d7a610e81565b5b828201905092915050565b6000610d9182610e77565b9150610d9c83610e77565b925082610dac57610dab610eb0565b5b828204905092915050565b6000610dc282610e77565b9150610dcd83610e77565b9250817fffffffffffffffffffffffffffffffffffffffffffffffffffffffffffffffff0483118215151615610e0657610e05610e81565b5b828202905092915050565b6000610e1c82610e77565b9150610e2783610e77565b925082821015610e3a57610e39610e81565b5b828203905092915050565b6000610e5082610e57565b9050919050565b600073ffffffffffffffffffffffffffffffffffffffff82169050919050565b6000819050919050565b7f4e487b7100000000000000000000000000000000000000000000000000000000600052601160045260246000fd5b7f4e487b7100000000000000000000000000000000000000000000000000000000600052601260045260246000fd5b610ee881610e45565b8114610ef357600080fd5b50565b610eff81610e77565b8114610f0a57600080fd5b5056fea264697066735822122001c30306435ad0c44e513af1d680e857f1ebe29358eaacd3cabecbc916e57a5364736f6c63430008000033",
  "immutableReferences": {},
  "source": "// SPDX-License-Identifier: MIT\r\npragma solidity ^0.8.0;\r\n\r\ncontract LendingPlatform {\r\n    mapping(address => uint) public balances;           // Tracks deposits (lending balance)\r\n    mapping(address => uint) public depositTimestamps;  // Timestamps for deposit to calculate interest\r\n    mapping(address => uint) public borrowedAmounts;    // Tracks borrowed amount per address\r\n    mapping(address => uint) public borrowTimestamps;   // Tracks the timestamp of borrow for interest calculation\r\n    uint public interestRate = 1;                        // 1% interest rate per day on deposits and borrowings\r\n    uint public totalFundsAvailable;                     // Total funds available for borrowing\r\n\r\n    // Deposit funds into the contract\r\n    function deposit() public payable {\r\n        balances[msg.sender] += msg.value;\r\n        depositTimestamps[msg.sender] = block.timestamp;\r\n        totalFundsAvailable += msg.value;\r\n    }\r\n\r\n    // Withdraw funds as a lender\r\n    function withdraw(uint256 amount) public {\r\n        uint depositAmount = balances[msg.sender];\r\n        require(depositAmount >= amount, \"Insufficient balance to withdraw\");\r\n        \r\n        uint depositTimestamp = depositTimestamps[msg.sender];\r\n        uint elapsedTime = (block.timestamp - depositTimestamp) / 1 days;\r\n        uint interest = (depositAmount * interestRate * elapsedTime) / 100;\r\n        \r\n        balances[msg.sender] -= amount;\r\n        totalFundsAvailable -= amount;\r\n        \r\n        payable(msg.sender).transfer(amount + interest);  // Transfer principal + interest\r\n    }\r\n\r\n    // Borrow funds from the contract\r\n    function borrow(uint256 amount) public {\r\n        require(amount > 0, \"Amount must be greater than 0\");\r\n        require(amount <= totalFundsAvailable, \"Not enough funds available in the contract\");\r\n\r\n        // Ensure borrower doesn't have an existing debt\r\n        uint currentDebt = borrowedAmounts[msg.sender];\r\n        require(currentDebt == 0, \"You already have an outstanding loan\");\r\n\r\n        borrowedAmounts[msg.sender] = amount;\r\n        borrowTimestamps[msg.sender] = block.timestamp;\r\n        totalFundsAvailable -= amount;\r\n\r\n        payable(msg.sender).transfer(amount);  // Transfer borrowed funds to the borrower\r\n    }\r\n\r\n    // Repay borrowed funds\r\n    function repay() public payable {\r\n        uint amountOwed = borrowedAmounts[msg.sender];\r\n        require(amountOwed > 0, \"No outstanding loan to repay\");\r\n\r\n        uint elapsedTime = (block.timestamp - borrowTimestamps[msg.sender]) / 1 days;\r\n        uint interestOwed = (amountOwed * interestRate * elapsedTime) / 100;\r\n\r\n        uint totalRepaymentAmount = amountOwed + interestOwed;\r\n        require(msg.value >= totalRepaymentAmount, \"Insufficient funds to repay the loan\");\r\n\r\n        borrowedAmounts[msg.sender] = 0; // Reset borrower's debt\r\n        borrowTimestamps[msg.sender] = 0;\r\n\r\n        totalFundsAvailable += msg.value;  // Add repayment to available funds\r\n        payable(address(this)).transfer(msg.value);  // Transfer the repayment to the contract's balance\r\n    }\r\n\r\n    // View function to check the contract's balance\r\n    function contractBalance() public view returns (uint256) {\r\n        return address(this).balance;\r\n    }\r\n}\r\n",
  "sourcePath": "C:\\Users\\HP\\Desktop\\test-app\\contracts\\LendingPlatform.sol",
  "compiler": {
    "name": "solc",
    "version": "0.8.0+commit.c7dfd78e.Emscripten.clang"
  },
  "schemaVersion": "3.4.16",
  "updatedAt": "2024-12-21T16:53:55.045Z",
  "networkType": "ethereum",
  "devdoc": {
    "kind": "dev",
    "methods": {},
    "version": 1
  },
  "userdoc": {
    "kind": "user",
    "methods": {},
    "version": 1
  }
}