{
  "contractName": "LendingPlatform",
  "abi": [
    {
      "inputs": [
        {
          "internalType": "address",
          "name": "",
          "type": "address"
        }
      ],
      "name": "balances",
      "outputs": [
        {
          "internalType": "uint256",
          "name": "",
          "type": "uint256"
        }
      ],
      "stateMutability": "view",
      "type": "function",
      "constant": true
    },
    {
      "inputs": [
        {
          "internalType": "address",
          "name": "",
          "type": "address"
        }
      ],
      "name": "borrowedAmounts",
      "outputs": [
        {
          "internalType": "uint256",
          "name": "",
          "type": "uint256"
        }
      ],
      "stateMutability": "view",
      "type": "function",
      "constant": true
    },
    {
      "inputs": [],
      "name": "totalFundsAvailable",
      "outputs": [
        {
          "internalType": "uint256",
          "name": "",
          "type": "uint256"
        }
      ],
      "stateMutability": "view",
      "type": "function",
      "constant": true
    },
    {
      "inputs": [],
      "name": "deposit",
      "outputs": [],
      "stateMutability": "payable",
      "type": "function",
      "payable": true
    },
    {
      "inputs": [
        {
          "internalType": "uint256",
          "name": "amount",
          "type": "uint256"
        }
      ],
      "name": "withdraw",
      "outputs": [],
      "stateMutability": "nonpayable",
      "type": "function"
    },
    {
      "inputs": [
        {
          "internalType": "uint256",
          "name": "amount",
          "type": "uint256"
        }
      ],
      "name": "borrow",
      "outputs": [],
      "stateMutability": "nonpayable",
      "type": "function"
    },
    {
      "inputs": [
        {
          "internalType": "uint256",
          "name": "amount",
          "type": "uint256"
        }
      ],
      "name": "repay",
      "outputs": [],
      "stateMutability": "payable",
      "type": "function",
      "payable": true
    },
    {
      "inputs": [],
      "name": "contractBalance",
      "outputs": [
        {
          "internalType": "uint256",
          "name": "",
          "type": "uint256"
        }
      ],
      "stateMutability": "view",
      "type": "function",
      "constant": true
    }
  ],
  "bytecode": "0x608060405234801561001057600080fd5b50610cca806100206000396000f3fe60806040526004361061007b5760003560e01c80638b7afe2e1161004e5780638b7afe2e1461013f578063ac1f7ca11461016a578063c5ebeaec14610195578063d0e30db0146101be5761007b565b806327e235e3146100805780632e1a7d4d146100bd578063371fd8e6146100e6578063478230f714610102575b600080fd5b34801561008c57600080fd5b506100a760048036038101906100a291906107ac565b6101c8565b6040516100b49190610b45565b60405180910390f35b3480156100c957600080fd5b506100e460048036038101906100df91906107d5565b6101e0565b005b61010060048036038101906100fb91906107d5565b61031f565b005b34801561010e57600080fd5b50610129600480360381019061012491906107ac565b6104a3565b6040516101369190610b45565b60405180910390f35b34801561014b57600080fd5b506101546104bb565b6040516101619190610b45565b60405180910390f35b34801561017657600080fd5b5061017f6104c3565b60405161018c9190610b45565b60405180910390f35b3480156101a157600080fd5b506101bc60048036038101906101b791906107d5565b6104c9565b005b6101c66106cf565b005b60006020528060005260406000206000915090505481565b60008060003373ffffffffffffffffffffffffffffffffffffffff1673ffffffffffffffffffffffffffffffffffffffff16815260200190815260200160002054905081811015610266576040517f08c379a000000000000000000000000000000000000000000000000000000000815260040161025d90610ac5565b60405180910390fd5b816000803373ffffffffffffffffffffffffffffffffffffffff1673ffffffffffffffffffffffffffffffffffffffff16815260200190815260200160002060008282546102b49190610bc7565b9250508190555081600260008282546102cd9190610bc7565b925050819055503373ffffffffffffffffffffffffffffffffffffffff166108fc839081150290604051600060405180830381858888f1935050505015801561031a573d6000803e3d6000fd5b505050565b6000600160003373ffffffffffffffffffffffffffffffffffffffff1673ffffffffffffffffffffffffffffffffffffffff168152602001908152602001600020549050600081116103a6576040517f08c379a000000000000000000000000000000000000000000000000000000000815260040161039d90610a85565b60405180910390fd5b808211156103e9576040517f08c379a00000000000000000000000000000000000000000000000000000000081526004016103e090610ae5565b60405180910390fd5b81600160003373ffffffffffffffffffffffffffffffffffffffff1673ffffffffffffffffffffffffffffffffffffffff16815260200190815260200160002060008282546104389190610bc7565b9250508190555081600260008282546104519190610b71565b925050819055503073ffffffffffffffffffffffffffffffffffffffff166108fc839081150290604051600060405180830381858888f1935050505015801561049e573d6000803e3d6000fd5b505050565b60016020528060005260406000206000915090505481565b600047905090565b60025481565b6000811161050c576040517f08c379a000000000000000000000000000000000000000000000000000000000815260040161050390610aa5565b60405180910390fd5b600254811115610551576040517f08c379a000000000000000000000000000000000000000000000000000000000815260040161054890610b05565b60405180910390fd5b6000600160003373ffffffffffffffffffffffffffffffffffffffff1673ffffffffffffffffffffffffffffffffffffffff168152602001908152602001600020549050600082826105a39190610b71565b90506000803373ffffffffffffffffffffffffffffffffffffffff1673ffffffffffffffffffffffffffffffffffffffff16815260200190815260200160002054811115610626576040517f08c379a000000000000000000000000000000000000000000000000000000000815260040161061d90610b25565b60405180910390fd5b80600160003373ffffffffffffffffffffffffffffffffffffffff1673ffffffffffffffffffffffffffffffffffffffff16815260200190815260200160002081905550826002600082825461067c9190610bc7565b925050819055503373ffffffffffffffffffffffffffffffffffffffff166108fc849081150290604051600060405180830381858888f193505050501580156106c9573d6000803e3d6000fd5b50505050565b60003411610712576040517f08c379a000000000000000000000000000000000000000000000000000000000815260040161070990610a65565b60405180910390fd5b346000803373ffffffffffffffffffffffffffffffffffffffff1673ffffffffffffffffffffffffffffffffffffffff16815260200190815260200160002060008282546107609190610b71565b9250508190555034600260008282546107799190610b71565b92505081905550565b60008135905061079181610c66565b92915050565b6000813590506107a681610c7d565b92915050565b6000602082840312156107be57600080fd5b60006107cc84828501610782565b91505092915050565b6000602082840312156107e757600080fd5b60006107f584828501610797565b91505092915050565b600061080b602583610b60565b91507f4465706f73697420616d6f756e74206d7573742062652067726561746572207460008301527f68616e20300000000000000000000000000000000000000000000000000000006020830152604082019050919050565b6000610871601c83610b60565b91507f4e6f206f75747374616e64696e67206c6f616e20746f207265706179000000006000830152602082019050919050565b60006108b1601d83610b60565b91507f416d6f756e74206d7573742062652067726561746572207468616e20300000006000830152602082019050919050565b60006108f1602083610b60565b91507f496e73756666696369656e742062616c616e636520746f2077697468647261776000830152602082019050919050565b6000610931602683610b60565b91507f43616e6e6f74207265706179206d6f7265207468616e20746865206f7765642060008301527f616d6f756e7400000000000000000000000000000000000000000000000000006020830152604082019050919050565b6000610997602a83610b60565b91507f4e6f7420656e6f7567682066756e647320617661696c61626c6520696e20746860008301527f6520636f6e7472616374000000000000000000000000000000000000000000006020830152604082019050919050565b60006109fd602a83610b60565b91507f43616e6e6f7420626f72726f77206d6f7265207468616e20796f75206861766560008301527f206465706f7369746564000000000000000000000000000000000000000000006020830152604082019050919050565b610a5f81610c2d565b82525050565b60006020820190508181036000830152610a7e816107fe565b9050919050565b60006020820190508181036000830152610a9e81610864565b9050919050565b60006020820190508181036000830152610abe816108a4565b9050919050565b60006020820190508181036000830152610ade816108e4565b9050919050565b60006020820190508181036000830152610afe81610924565b9050919050565b60006020820190508181036000830152610b1e8161098a565b9050919050565b60006020820190508181036000830152610b3e816109f0565b9050919050565b6000602082019050610b5a6000830184610a56565b92915050565b600082825260208201905092915050565b6000610b7c82610c2d565b9150610b8783610c2d565b9250827fffffffffffffffffffffffffffffffffffffffffffffffffffffffffffffffff03821115610bbc57610bbb610c37565b5b828201905092915050565b6000610bd282610c2d565b9150610bdd83610c2d565b925082821015610bf057610bef610c37565b5b828203905092915050565b6000610c0682610c0d565b9050919050565b600073ffffffffffffffffffffffffffffffffffffffff82169050919050565b6000819050919050565b7f4e487b7100000000000000000000000000000000000000000000000000000000600052601160045260246000fd5b610c6f81610bfb565b8114610c7a57600080fd5b50565b610c8681610c2d565b8114610c9157600080fd5b5056fea26469706673582212203fbb33ac6f02f846358b675b3fdd4dd6cdc86afe3d824b2ada14051ff4b4a3a664736f6c63430008000033",
  "immutableReferences": {},
  "source": "// SPDX-License-Identifier: MIT\r\npragma solidity ^0.8.0;\r\n\r\ncontract LendingPlatform {\r\n    mapping(address => uint) public balances;           // Tracks deposits (lending balance)\r\n    mapping(address => uint) public borrowedAmounts;    // Tracks borrowed amount per address\r\n    uint public totalFundsAvailable;                     // Total funds available for borrowing\r\n\r\n    // Deposit funds into the contract\r\n    function deposit() public payable {\r\n        require(msg.value > 0, \"Deposit amount must be greater than 0\");\r\n        balances[msg.sender] += msg.value;\r\n        totalFundsAvailable += msg.value;\r\n    }\r\n\r\n    // Withdraw funds as a lender\r\n    function withdraw(uint256 amount) public {\r\n        uint depositAmount = balances[msg.sender];\r\n        require(depositAmount >= amount, \"Insufficient balance to withdraw\");\r\n        \r\n        balances[msg.sender] -= amount;\r\n        totalFundsAvailable -= amount;\r\n        \r\n        payable(msg.sender).transfer(amount);  // Transfer principal back to the lender\r\n    }\r\n\r\n    // Borrow funds from the contract\r\n    function borrow(uint256 amount) public {\r\n        require(amount > 0, \"Amount must be greater than 0\");\r\n        require(amount <= totalFundsAvailable, \"Not enough funds available in the contract\");\r\n\r\n        uint currentDebt = borrowedAmounts[msg.sender];\r\n        uint totalDebt = currentDebt + amount;\r\n        require(totalDebt <= balances[msg.sender], \"Cannot borrow more than you have deposited\");\r\n\r\n        borrowedAmounts[msg.sender] = totalDebt;\r\n        totalFundsAvailable -= amount;\r\n\r\n        payable(msg.sender).transfer(amount);  // Transfer borrowed funds to the borrower\r\n    }\r\n\r\n    // Repay borrowed funds partially or fully\r\n    function repay(uint256 amount) public payable {\r\n        uint amountOwed = borrowedAmounts[msg.sender];\r\n        require(amountOwed > 0, \"No outstanding loan to repay\");\r\n        require(amount <= amountOwed, \"Cannot repay more than the owed amount\");\r\n\r\n        borrowedAmounts[msg.sender] -= amount;\r\n        totalFundsAvailable += amount;  // Add repayment to available funds\r\n\r\n        payable(address(this)).transfer(amount);  // Transfer repayment to the contract\r\n    }\r\n\r\n    // View function to check the contract's balance\r\n    function contractBalance() public view returns (uint256) {\r\n        return address(this).balance;\r\n    }\r\n}\r\n",
  "sourcePath": "C:\\Users\\HP\\Desktop\\test-app\\contracts\\LendingPlatform.sol",
  "compiler": {
    "name": "solc",
    "version": "0.8.0+commit.c7dfd78e.Emscripten.clang"
  },
  "schemaVersion": "3.4.16",
  "updatedAt": "2024-12-21T18:16:28.719Z",
  "networkType": "ethereum",
  "devdoc": {
    "kind": "dev",
    "methods": {},
    "version": 1
  },
  "userdoc": {
    "kind": "user",
    "methods": {},
    "version": 1
  }
}